{
  "contractName": "MathLibrary",
  "abi": [
    {
      "inputs": [
        {
          "internalType": "string",
          "name": "_str1",
          "type": "string"
        },
        {
          "internalType": "string",
          "name": "_str2",
          "type": "string"
        }
      ],
      "name": "addFloat",
      "outputs": [
        {
          "internalType": "uint256",
          "name": "wp",
          "type": "uint256"
        },
        {
          "internalType": "uint256",
          "name": "dp",
          "type": "uint256"
        },
        {
          "internalType": "string",
          "name": "_str",
          "type": "string"
        }
      ],
      "stateMutability": "pure",
      "type": "function",
      "constant": true
    },
    {
      "inputs": [
        {
          "internalType": "string",
          "name": "_str1",
          "type": "string"
        },
        {
          "internalType": "string",
          "name": "_str2",
          "type": "string"
        }
      ],
      "name": "subFloat",
      "outputs": [
        {
          "internalType": "uint256",
          "name": "wp",
          "type": "uint256"
        },
        {
          "internalType": "uint256",
          "name": "dp",
          "type": "uint256"
        },
        {
          "internalType": "string",
          "name": "_str",
          "type": "string"
        }
      ],
      "stateMutability": "pure",
      "type": "function",
      "constant": true
    },
    {
      "inputs": [
        {
          "internalType": "string",
          "name": "_str1",
          "type": "string"
        },
        {
          "internalType": "string",
          "name": "_str2",
          "type": "string"
        }
      ],
      "name": "normalizeNumbers",
      "outputs": [
        {
          "internalType": "string",
          "name": "",
          "type": "string"
        },
        {
          "internalType": "string",
          "name": "",
          "type": "string"
        }
      ],
      "stateMutability": "pure",
      "type": "function",
      "constant": true
    },
    {
      "inputs": [
        {
          "internalType": "string",
          "name": "_str",
          "type": "string"
        }
      ],
      "name": "removeDot",
      "outputs": [
        {
          "internalType": "uint256",
          "name": "",
          "type": "uint256"
        },
        {
          "internalType": "bool",
          "name": "",
          "type": "bool"
        }
      ],
      "stateMutability": "pure",
      "type": "function",
      "constant": true
    },
    {
      "inputs": [
        {
          "internalType": "string",
          "name": "_str1",
          "type": "string"
        },
        {
          "internalType": "string",
          "name": "_str2",
          "type": "string"
        }
      ],
      "name": "removeDotAndNormalize",
      "outputs": [
        {
          "internalType": "uint256",
          "name": "",
          "type": "uint256"
        },
        {
          "internalType": "uint256",
          "name": "",
          "type": "uint256"
        }
      ],
      "stateMutability": "pure",
      "type": "function",
      "constant": true
    }
  ],
  "bytecode": "0x608060405234801561001057600080fd5b50611c02806100206000396000f3fe608060405234801561001057600080fd5b50600436106100575760003560e01c8063384f6cdb1461005c578063a196f7891461008d578063c811001f146100be578063d82ece86146100f0578063ee5bf7c914610122575b600080fd5b61007660048036038101906100719190611280565b610153565b604051610084929190611380565b60405180910390f35b6100a760048036038101906100a29190611280565b6103bc565b6040516100b59291906113d0565b60405180910390f35b6100d860048036038101906100d39190611280565b610550565b6040516100e7939291906113f9565b60405180910390f35b61010a60048036038101906101059190611280565b6106c2565b604051610119939291906113f9565b60405180910390f35b61013c60048036038101906101379190611437565b6109e9565b60405161014a92919061149b565b60405180910390f35b6060806060806060806000806101688a610a35565b809650819750505061017989610a35565b809450819550505061018a83610cdc565b61019386610cdc565b10156101f7576101f4856040518060400160405280600181526020017f30000000000000000000000000000000000000000000000000000000000000008152506101dc88610cdc565b6101e587610cdc565b6101ef91906114f3565b610ce7565b94505b61020085610cdc565b61020984610cdc565b101561026d5761026a836040518060400160405280600181526020017f300000000000000000000000000000000000000000000000000000000000000081525061025286610cdc565b61025b89610cdc565b61026591906114f3565b610ce7565b92505b6102778a8a6103bc565b8092508193505050808214156102d0578460405160200161029891906115af565b6040516020818303038152906040529450826040516020016102ba91906115af565b6040516020818303038152906040529250610367565b8082111561032157846040516020016102e9919061161d565b60405160208183030381529060405294508260405160200161030b91906115af565b6040516020818303038152906040529250610366565b8460405160200161033291906115af565b604051602081830303815290604052945082604051602001610354919061161d565b60405160208183030381529060405292505b5b858560405160200161037a92919061168b565b604051602081830303815290604052848460405160200161039c92919061168b565b604051602081830303815290604052975097505050505050509250929050565b60008060608060608060008060006103d38b610a35565b80975081985050506103e48a610a35565b80955081965050506103f584610cdc565b6103fe87610cdc565b10156104625761045f866040518060400160405280600181526020017f300000000000000000000000000000000000000000000000000000000000000081525061044789610cdc565b61045088610cdc565b61045a91906114f3565b610ce7565b95505b61046b86610cdc565b61047485610cdc565b10156104d8576104d5846040518060400160405280600181526020017f30000000000000000000000000000000000000000000000000000000000000008152506104bd87610cdc565b6104c68a610cdc565b6104d091906114f3565b610ce7565b93505b61050287876040516020016104ee9291906116ba565b604051602081830303815290604052610d57565b809450819350505061053485856040516020016105209291906116ba565b604051602081830303815290604052610d57565b8094508192505050818198509850505050505050509250929050565b6000806060600080600080600060608061056a8c8c610153565b809250819350505061057b82610e72565b809750819850505061058c81610e72565b809550819650505083866105a091906116de565b98507f30000000000000000000000000000000000000000000000000000000000000006105cc8a610eb7565b6001815181106105df576105de611734565b5b602001015160f81c60f81b7effffffffffffffffffffffffffffffffffffffffffffffffffffffffffffff191614610630576001858861061f91906116de565b61062991906116de565b995061063f565b848761063c91906116de565b99505b6106488a610eb7565b6106656106548b610eb7565b600261065f8d610eb7565b51610ffe565b60405160200161067692919061168b565b60405160208183030381529060405297506106ac6106a76106968b610eb7565b60026106a18d610eb7565b51610ffe565b610d57565b809450819a505050505050505050509250925092565b600080606060008060008060008060006060806106df8e8e610153565b80925081935050506106f182826103bc565b8095508196505050838514156107465760009b5060009a506040518060400160405280600381526020017f302e30000000000000000000000000000000000000000000000000000000000081525099506109d9565b838511156108955761075782610e72565b809950819a50505061076881610e72565b8097508198505050858861077c91906114f3565b9a507f30000000000000000000000000000000000000000000000000000000000000006107a88c610eb7565b6001815181106107bb576107ba611734565b5b602001015160f81c60f81b7effffffffffffffffffffffffffffffffffffffffffffffffffffffffffffff19161461080c576001878a6107fb91906114f3565b61080591906114f3565b9b5061081b565b868961081891906114f3565b9b505b6108248c610eb7565b6108416108308d610eb7565b600261083b8f610eb7565b51610ffe565b60405160200161085292919061168b565b60405160208183030381529060405299506108886108836108728d610eb7565b600261087d8f610eb7565b51610ffe565b610d57565b809450819c5050506109d8565b61089e82610e72565b809950819a5050506108af81610e72565b809750819850505087866108c391906114f3565b9a507f30000000000000000000000000000000000000000000000000000000000000006108ef8c610eb7565b60018151811061090257610901611734565b5b602001015160f81c60f81b7effffffffffffffffffffffffffffffffffffffffffffffffffffffffffffff191614610953576001898861094291906114f3565b61094c91906114f3565b9b50610962565b888761095f91906114f3565b9b505b61096b8c610eb7565b6109886109778d610eb7565b60026109828f610eb7565b51610ffe565b6040516020016109999291906117af565b60405160208183030381529060405299506109cf6109ca6109b98d610eb7565b60026109c48f610eb7565b51610ffe565b610d57565b809450819c5050505b5b5050505050505050509250925092565b6000806060806109f885610a35565b8092508193505050610a2a8282604051602001610a169291906116ba565b604051602081830303815290604052610d57565b935093505050915091565b606080600083519050600080600090505b82811015610b0b576040518060400160405280600181526020017f2e00000000000000000000000000000000000000000000000000000000000000815250604051602001610a949190611830565b60405160208183030381529060405280519060200120868281518110610abd57610abc611734565b5b602001015160f81c60f81b604051602001610ad89190611894565b604051602081830303815290604052805190602001201415610af8578091505b8080610b03906118af565b915050610a46565b5060008167ffffffffffffffff811115610b2857610b27611155565b5b6040519080825280601f01601f191660200182016040528015610b5a5781602001600182028036833780820191505090505b509050600060018385610b6d91906114f3565b610b7791906114f3565b67ffffffffffffffff811115610b9057610b8f611155565b5b6040519080825280601f01601f191660200182016040528015610bc25781602001600182028036833780820191505090505b50905060005b84811015610ccc5783811015610c3957878181518110610beb57610bea611734565b5b602001015160f81c60f81b838281518110610c0957610c08611734565b5b60200101907effffffffffffffffffffffffffffffffffffffffffffffffffffffffffffff1916908160001a9053505b83811115610cb957878181518110610c5457610c53611734565b5b602001015160f81c60f81b8260018684610c6e91906114f3565b610c7891906114f3565b81518110610c8957610c88611734565b5b60200101907effffffffffffffffffffffffffffffffffffffffffffffffffffffffffffff1916908160001a9053505b8080610cc4906118af565b915050610bc8565b5081819550955050505050915091565b600081519050919050565b606060005b82811015610d2b578184604051602001610d079291906116ba565b60405160208183030381529060405291508080610d23906118af565b915050610cec565b508381604051602001610d3f9291906116ba565b60405160208183030381529060405290509392505050565b60008060005b8351811015610e645760006030858381518110610d7d57610d7c611734565b5b602001015160f81c60f81b60f81c610d959190611905565b60ff161080610dd3575060096030858381518110610db657610db5611734565b5b602001015160f81c60f81b60f81c610dce9190611905565b60ff16115b15610de5576000809250925050610e6d565b6001818551610df491906114f3565b610dfe91906114f3565b600a610e0a9190611a6c565b6030858381518110610e1f57610e1e611734565b5b602001015160f81c60f81b60f81c610e379190611905565b60ff16610e449190611ab7565b83610e4f91906116de565b92508080610e5c906118af565b915050610d5d565b50816001915091505b915091565b600080600080606080610e8487610a35565b8092508193505050610e9582610d57565b8095508197505050610ea681610d57565b809450819650505050505050915091565b60606000821415610eff576040518060400160405280600181526020017f30000000000000000000000000000000000000000000000000000000000000008152509050610ff9565b60008290506000610f0f826110f4565b905060008167ffffffffffffffff811115610f2d57610f2c611155565b5b6040519080825280601f01601f191660200182016040528015610f5f5781602001600182028036833780820191505090505b50905060008290508593505b60008414610ff157600a84610f809190611b40565b6030610f8c91906116de565b60f81b8282610f9a90611b71565b92508281518110610fae57610fad611734565b5b60200101907effffffffffffffffffffffffffffffffffffffffffffffffffffffffffffff1916908160001a905350600a84610fea9190611b9b565b9350610f6b565b819450505050505b919050565b60606000838361100e91906114f3565b67ffffffffffffffff81111561102757611026611155565b5b6040519080825280601f01601f1916602001820160405280156110595781602001600182028036833780820191505090505b50905060008490505b838110156110e85785818151811061107d5761107c611734565b5b602001015160f81c60f81b82868361109591906114f3565b815181106110a6576110a5611734565b5b60200101907effffffffffffffffffffffffffffffffffffffffffffffffffffffffffffff1916908160001a90535080806110e0906118af565b915050611062565b50809150509392505050565b60005b6000821461112157808061110a906118af565b915050600a8261111a9190611b9b565b91506110f7565b919050565b6000604051905090565b600080fd5b600080fd5b600080fd5b600080fd5b6000601f19601f8301169050919050565b7f4e487b7100000000000000000000000000000000000000000000000000000000600052604160045260246000fd5b61118d82611144565b810181811067ffffffffffffffff821117156111ac576111ab611155565b5b80604052505050565b60006111bf611126565b90506111cb8282611184565b919050565b600067ffffffffffffffff8211156111eb576111ea611155565b5b6111f482611144565b9050602081019050919050565b82818337600083830152505050565b600061122361121e846111d0565b6111b5565b90508281526020810184848401111561123f5761123e61113f565b5b61124a848285611201565b509392505050565b600082601f8301126112675761126661113a565b5b8135611277848260208601611210565b91505092915050565b6000806040838503121561129757611296611130565b5b600083013567ffffffffffffffff8111156112b5576112b4611135565b5b6112c185828601611252565b925050602083013567ffffffffffffffff8111156112e2576112e1611135565b5b6112ee85828601611252565b9150509250929050565b600081519050919050565b600082825260208201905092915050565b60005b83811015611332578082015181840152602081019050611317565b83811115611341576000848401525b50505050565b6000611352826112f8565b61135c8185611303565b935061136c818560208601611314565b61137581611144565b840191505092915050565b6000604082019050818103600083015261139a8185611347565b905081810360208301526113ae8184611347565b90509392505050565b6000819050919050565b6113ca816113b7565b82525050565b60006040820190506113e560008301856113c1565b6113f260208301846113c1565b9392505050565b600060608201905061140e60008301866113c1565b61141b60208301856113c1565b818103604083015261142d8184611347565b9050949350505050565b60006020828403121561144d5761144c611130565b5b600082013567ffffffffffffffff81111561146b5761146a611135565b5b61147784828501611252565b91505092915050565b60008115159050919050565b61149581611480565b82525050565b60006040820190506114b060008301856113c1565b6114bd602083018461148c565b9392505050565b7f4e487b7100000000000000000000000000000000000000000000000000000000600052601160045260246000fd5b60006114fe826113b7565b9150611509836113b7565b92508282101561151c5761151b6114c4565b5b828203905092915050565b600081905092915050565b7f3130000000000000000000000000000000000000000000000000000000000000600082015250565b6000611568600283611527565b915061157382611532565b600282019050919050565b6000611589826112f8565b6115938185611527565b93506115a3818560208601611314565b80840191505092915050565b60006115ba8261155b565b91506115c6828461157e565b915081905092915050565b7f3330000000000000000000000000000000000000000000000000000000000000600082015250565b6000611607600283611527565b9150611612826115d1565b600282019050919050565b6000611628826115fa565b9150611634828461157e565b915081905092915050565b7f2e00000000000000000000000000000000000000000000000000000000000000600082015250565b6000611675600183611527565b91506116808261163f565b600182019050919050565b6000611697828561157e565b91506116a282611668565b91506116ae828461157e565b91508190509392505050565b60006116c6828561157e565b91506116d2828461157e565b91508190509392505050565b60006116e9826113b7565b91506116f4836113b7565b9250827fffffffffffffffffffffffffffffffffffffffffffffffffffffffffffffffff03821115611729576117286114c4565b5b828201905092915050565b7f4e487b7100000000000000000000000000000000000000000000000000000000600052603260045260246000fd5b7f2d00000000000000000000000000000000000000000000000000000000000000600082015250565b6000611799600183611527565b91506117a482611763565b600182019050919050565b60006117ba8261178c565b91506117c6828561157e565b91506117d182611668565b91506117dd828461157e565b91508190509392505050565b600081519050919050565b600081905092915050565b600061180a826117e9565b61181481856117f4565b9350611824818560208601611314565b80840191505092915050565b600061183c82846117ff565b915081905092915050565b60007fff0000000000000000000000000000000000000000000000000000000000000082169050919050565b6000819050919050565b61188e61188982611847565b611873565b82525050565b60006118a0828461187d565b60018201915081905092915050565b60006118ba826113b7565b91507fffffffffffffffffffffffffffffffffffffffffffffffffffffffffffffffff8214156118ed576118ec6114c4565b5b600182019050919050565b600060ff82169050919050565b6000611910826118f8565b915061191b836118f8565b92508282101561192e5761192d6114c4565b5b828203905092915050565b60008160011c9050919050565b6000808291508390505b60018511156119905780860481111561196c5761196b6114c4565b5b600185161561197b5780820291505b808102905061198985611939565b9450611950565b94509492505050565b6000826119a95760019050611a65565b816119b75760009050611a65565b81600181146119cd57600281146119d757611a06565b6001915050611a65565b60ff8411156119e9576119e86114c4565b5b8360020a915084821115611a00576119ff6114c4565b5b50611a65565b5060208310610133831016604e8410600b8410161715611a3b5782820a905083811115611a3657611a356114c4565b5b611a65565b611a488484846001611946565b92509050818404811115611a5f57611a5e6114c4565b5b81810290505b9392505050565b6000611a77826113b7565b9150611a82836113b7565b9250611aaf7fffffffffffffffffffffffffffffffffffffffffffffffffffffffffffffffff8484611999565b905092915050565b6000611ac2826113b7565b9150611acd836113b7565b9250817fffffffffffffffffffffffffffffffffffffffffffffffffffffffffffffffff0483118215151615611b0657611b056114c4565b5b828202905092915050565b7f4e487b7100000000000000000000000000000000000000000000000000000000600052601260045260246000fd5b6000611b4b826113b7565b9150611b56836113b7565b925082611b6657611b65611b11565b5b828206905092915050565b6000611b7c826113b7565b91506000821415611b9057611b8f6114c4565b5b600182039050919050565b6000611ba6826113b7565b9150611bb1836113b7565b925082611bc157611bc0611b11565b5b82820490509291505056fea26469706673582212206b704f9cba7cd4de55fd064746293db710124ee970ed835edd8d2bdeb3df42fa64736f6c63430008090033",
  "immutableReferences": {},
  "source": "// SPDX-License-Identifier: MIT\npragma solidity 0.8.9;\n\ncontract MathLibrary {\n    //=== add two floating points. Input and output are all unsigned integers\n    function addFloat(string memory _str1, string memory _str2)\n        public\n        pure\n        returns (\n            uint256 wp,\n            uint256 dp,\n            string memory _str\n        )\n    {\n        uint256 wp1;\n        uint256 dp1;\n        uint256 wp2;\n        uint256 dp2;\n        bool isUint;\n\n        string memory str1;\n        string memory str2;\n\n        (str1, str2) = normalizeNumbers(_str1, _str2);\n\n        (wp1, dp1) = splitDecimalStringToIntegers(str1);\n        (wp2, dp2) = splitDecimalStringToIntegers(str2);\n\n        dp = dp1 + dp2;\n\n        if (bytes(uintToString(dp))[1] != \"0\") {\n            wp = wp1 + wp2 + 1;\n        } else {\n            wp = wp1 + wp2;\n        }\n\n        _str = string(\n            abi.encodePacked(\n                uintToString(wp),\n                \".\",\n                substring(\n                    string(bytes(uintToString(dp))),\n                    2,\n                    bytes(uintToString(dp)).length\n                )\n            )\n        );\n\n        (dp, isUint) = strToUint(\n            substring(\n                string(bytes(uintToString(dp))),\n                2,\n                bytes(uintToString(dp)).length\n            )\n        );\n    }\n\n    //=== substraction with two floating points. Input and output are all unsigned integers\n    function subFloat(string memory _str1, string memory _str2)\n        public\n        pure\n        returns (\n            uint256 wp,\n            uint256 dp,\n            string memory _str\n        )\n    {\n        uint256 wp1;\n        uint256 dp1;\n        uint256 wp2;\n        uint256 dp2;\n        uint256 num1;\n        uint256 num2;\n        bool isUint;\n\n        string memory str1;\n        string memory str2;\n\n        (str1, str2) = normalizeNumbers(_str1, _str2);\n\n        (num1, num2) = removeDotAndNormalize(str1, str2);\n\n        if (num1 == num2) {\n            wp = 0;\n            dp = 0;\n            _str = \"0.0\";\n        } else if (num1 > num2) {\n            (wp1, dp1) = splitDecimalStringToIntegers(str1);\n            (wp2, dp2) = splitDecimalStringToIntegers(str2);\n\n            dp = dp1 - dp2;\n\n            if (bytes(uintToString(dp))[1] != \"0\") {\n                wp = wp1 - wp2 - 1;\n            } else {\n                wp = wp1 - wp2;\n            }\n\n            _str = string(\n                abi.encodePacked(\n                    uintToString(wp),\n                    \".\",\n                    substring(\n                        string(bytes(uintToString(dp))),\n                        2,\n                        bytes(uintToString(dp)).length\n                    )\n                )\n            );\n            (dp, isUint) = strToUint(\n                substring(\n                    string(bytes(uintToString(dp))),\n                    2,\n                    bytes(uintToString(dp)).length\n                )\n            );\n        } else {\n            (wp1, dp1) = splitDecimalStringToIntegers(str1);\n            (wp2, dp2) = splitDecimalStringToIntegers(str2);\n\n            dp = dp2 - dp1;\n\n            if (bytes(uintToString(dp))[1] != \"0\") {\n                wp = wp2 - wp1 - 1;\n            } else {\n                wp = wp2 - wp1;\n            }\n\n            _str = string(\n                abi.encodePacked(\n                    \"-\",\n                    uintToString(wp),\n                    \".\",\n                    substring(\n                        string(bytes(uintToString(dp))),\n                        2,\n                        bytes(uintToString(dp)).length\n                    )\n                )\n            );\n            (dp, isUint) = strToUint(\n                substring(\n                    string(bytes(uintToString(dp))),\n                    2,\n                    bytes(uintToString(dp)).length\n                )\n            );\n        }\n    }\n\n    //=== Find the length of an unsigned integer\n    function lengthOfUint(uint256 _num) private pure returns (uint256 length) {\n        while (_num != 0) {\n            length++;\n            _num /= 10;\n        }\n    }\n\n    //=== Find the number of bytes in a string\n    function lengthOfString(string memory _str) private pure returns (uint256) {\n        return bytes(_str).length;\n    }\n\n    //=== Return the maximum number\n    function max(uint256 _num1, uint256 _num2)\n        private\n        pure\n        returns (uint256 maxNumber)\n    {\n        _num1 >= _num2 ? maxNumber = _num1 : maxNumber = _num2;\n    }\n\n    //=== Separates decimal number (string) to whole number (string) and decimal parts (string)\n    function splitstring(string memory _str)\n        private\n        pure\n        returns (string memory, string memory)\n    {\n        uint256 n = bytes(_str).length;\n\n        uint256 limit;\n\n        for (uint256 i = 0; i < n; i++) {\n            if (\n                keccak256(abi.encodePacked(bytes(_str)[i])) ==\n                keccak256(abi.encodePacked(bytes(\".\")))\n            ) {\n                limit = i;\n            }\n        }\n\n        bytes memory wholeNumberPart = new bytes(limit);\n        bytes memory decimalPart = new bytes(n - limit - 1);\n\n        for (uint256 i = 0; i < n; i++) {\n            if (i < limit) {\n                wholeNumberPart[i] = bytes(_str)[i];\n            }\n\n            if (i > limit) {\n                decimalPart[i - limit - 1] = bytes(_str)[i];\n            }\n        }\n\n        return (string(wholeNumberPart), string(decimalPart));\n    }\n\n    //=== extract part of string starting at _startIndex and ending at _endIndex\n    function substring(\n        string memory _str,\n        uint256 _startIndex,\n        uint256 _endIndex\n    ) private pure returns (string memory) {\n        bytes memory result = new bytes(_endIndex - _startIndex);\n\n        for (uint256 i = _startIndex; i < _endIndex; i++) {\n            result[i - _startIndex] = bytes(_str)[i];\n        }\n\n        return string(result);\n    }\n\n    //=== Convert a string to a uint with error handling\n    function strToUint(string memory _str)\n        private\n        pure\n        returns (uint256 res, bool err)\n    {\n        for (uint256 i = 0; i < bytes(_str).length; i++) {\n            if (\n                (uint8(bytes(_str)[i]) - 48) < 0 ||\n                (uint8(bytes(_str)[i]) - 48) > 9\n            ) {\n                return (0, false);\n            }\n            res +=\n                (uint8(bytes(_str)[i]) - 48) *\n                10**(bytes(_str).length - i - 1);\n        }\n\n        return (res, true);\n    }\n\n    function splitDecimalStringToIntegers(string memory _str)\n        private\n        pure\n        returns (uint256 wp, uint256 dp)\n    {\n        bool wpBool;\n        bool dpBool;\n        string memory wholeNumberPart;\n        string memory decimalPart;\n\n        (wholeNumberPart, decimalPart) = splitstring(_str);\n\n        (wp, wpBool) = strToUint(wholeNumberPart);\n        (dp, dpBool) = strToUint(decimalPart);\n\n        return (wp, dp);\n    }\n\n    //=== Separates decimal number (string) to whole number (uint) and decimal (uint) parts\n    function uintToString(uint256 _i) private pure returns (string memory str) {\n        if (_i == 0) return \"0\";\n\n        uint256 j = _i;\n        uint256 length;\n\n        length = lengthOfUint(j);\n\n        bytes memory bstr = new bytes(length);\n        uint256 k = length;\n        j = _i;\n\n        while (j != 0) {\n            bstr[--k] = bytes1(uint8(48 + (j % 10)));\n            j /= 10;\n        }\n\n        str = string(bstr);\n\n        return str;\n    }\n\n    // Add 10 and 30 at the bigining of the decimal parts and add zero at the end to have same number of digits for the two Input\n    function normalizeNumbers(string memory _str1, string memory _str2)\n        public\n        pure\n        returns (string memory, string memory)\n    {\n        string memory wpStr1;\n        string memory dpStr1;\n        string memory wpStr2;\n        string memory dpStr2;\n\n        uint256 num1;\n        uint256 num2;\n        //bool isUint;\n\n        (wpStr1, dpStr1) = splitstring(_str1);\n        (wpStr2, dpStr2) = splitstring(_str2);\n\n        if (lengthOfString(dpStr1) < lengthOfString(dpStr2)) {\n            dpStr1 = paddRight(\n                dpStr1,\n                \"0\",\n                lengthOfString(dpStr2) - lengthOfString(dpStr1)\n            );\n        }\n\n        if (lengthOfString(dpStr2) < lengthOfString(dpStr1)) {\n            dpStr2 = paddRight(\n                dpStr2,\n                \"0\",\n                lengthOfString(dpStr1) - lengthOfString(dpStr2)\n            );\n        }\n\n        (num1, num2) = removeDotAndNormalize(_str1, _str2);\n\n        if (num1 == num2) {\n            dpStr1 = string(abi.encodePacked(\"10\", dpStr1));\n            dpStr2 = string(abi.encodePacked(\"10\", dpStr2));\n        } else if (num1 > num2) {\n            dpStr1 = string(abi.encodePacked(\"30\", dpStr1));\n            dpStr2 = string(abi.encodePacked(\"10\", dpStr2));\n        } else {\n            dpStr1 = string(abi.encodePacked(\"10\", dpStr1));\n            dpStr2 = string(abi.encodePacked(\"30\", dpStr2));\n        }\n\n        return (\n            string(abi.encodePacked(wpStr1, \".\", dpStr1)),\n            string(abi.encodePacked(wpStr2, \".\", dpStr2))\n        );\n    }\n\n    //=== Put numbers to equal number of digits\n    function equalDigitsRight(uint256 _num1, uint256 _num2)\n        private\n        pure\n        returns (uint256 num1, uint256 num2)\n    {\n        if (lengthOfUint(_num1) == lengthOfUint(_num2)) {\n            num1 = _num1;\n            num2 = _num2;\n        } else {\n            if (lengthOfUint(_num1) > lengthOfUint(_num2)) {\n                string memory str2 = uintToString(_num2);\n                bool isUint;\n\n                str2 = paddRight(\n                    str2,\n                    \"0\",\n                    lengthOfUint(_num1) - lengthOfUint(_num2)\n                );\n\n                num1 = _num1;\n                (num2, isUint) = strToUint(str2);\n            } else {\n                string memory str1 = uintToString(_num1);\n                bool isUint;\n\n                str1 = paddRight(\n                    str1,\n                    \"0\",\n                    lengthOfUint(_num2) - lengthOfUint(_num1)\n                );\n\n                (num1, isUint) = strToUint(str1);\n                num2 = _num2;\n            }\n        }\n    }\n\n    //=== Put numbers to equal number of digits\n    function equalDigitsLeft(uint256 _num1, uint256 _num2)\n        private\n        pure\n        returns (uint256 num1, uint256 num2)\n    {\n        if (lengthOfUint(_num1) == lengthOfUint(_num2)) {\n            num1 = _num1;\n            num2 = _num2;\n        } else {\n            if (lengthOfUint(_num1) > lengthOfUint(_num2)) {\n                string memory str2 = uintToString(_num2);\n                bool isUint;\n\n                str2 = paddLeft(\n                    str2,\n                    \"0\",\n                    lengthOfUint(_num1) - lengthOfUint(_num2)\n                );\n\n                num1 = _num1;\n                (num2, isUint) = strToUint(str2);\n            } else {\n                string memory str1 = uintToString(_num1);\n                bool isUint;\n\n                str1 = paddLeft(\n                    str1,\n                    \"0\",\n                    lengthOfUint(_num2) - lengthOfUint(_num1)\n                );\n\n                (num1, isUint) = strToUint(str1);\n                num2 = _num2;\n            }\n        }\n    }\n\n    //=== Removing the dot \".\" of a floating point number. Ex: \"12.45 => 1245\"\n    function removeDot(string memory _str) public pure returns (uint256, bool) {\n        string memory wp;\n        string memory dp;\n\n        (wp, dp) = splitstring(_str);\n\n        return strToUint(string(abi.encodePacked(wp, dp)));\n    }\n\n    //=== Removing the dot \".\" of two floating point numbers and normalizing. Ex: \"(3.14, 14.3) => (314, 1430)\"\n    function removeDotAndNormalize(string memory _str1, string memory _str2)\n        public\n        pure\n        returns (uint256, uint256)\n    {\n        string memory wp1;\n        string memory dp1;\n        string memory wp2;\n        string memory dp2;\n        bool isUint;\n        uint256 num1;\n        uint256 num2;\n\n        (wp1, dp1) = splitstring(_str1);\n        (wp2, dp2) = splitstring(_str2);\n\n        if (lengthOfString(dp1) < lengthOfString(dp2)) {\n            dp1 = paddRight(\n                dp1,\n                \"0\",\n                lengthOfString(dp2) - lengthOfString(dp1)\n            );\n        }\n\n        if (lengthOfString(dp2) < lengthOfString(dp1)) {\n            dp2 = paddRight(\n                dp2,\n                \"0\",\n                lengthOfString(dp1) - lengthOfString(dp2)\n            );\n        }\n\n        (num1, isUint) = strToUint(string(abi.encodePacked(wp1, dp1)));\n        (num2, isUint) = strToUint(string(abi.encodePacked(wp2, dp2)));\n\n        return (num1, num2);\n    }\n\n    //=== Padding Right\n    function paddRight(\n        string memory _str,\n        string memory _padStr,\n        uint256 _padSize\n    ) private pure returns (string memory str) {\n        for (uint256 i = 0; i < _padSize; i++) {\n            str = string(abi.encodePacked(str, _padStr));\n        }\n\n        return string(abi.encodePacked(_str, str));\n    }\n\n    //=== Padding Left\n    function paddLeft(\n        string memory _str,\n        string memory _padStr,\n        uint256 _padSize\n    ) private pure returns (string memory str) {\n        for (uint256 i = 0; i < _padSize; i++) {\n            str = string(abi.encodePacked(str, _padStr));\n        }\n\n        return string(abi.encodePacked(str, _str));\n    }\n}\n",
  "sourcePath": "/Users/samuel/Documents/Projet/Pojet_Dev/Solity_Math/contracts/MathLibrary.sol",
  "compiler": {
    "name": "solc",
    "version": "0.8.9+commit.e5eed63a.Emscripten.clang"
  },
  "schemaVersion": "3.3.4",
  "updatedAt": "2021-10-14T14:29:26.144Z",
  "networkType": "ethereum",
  "devdoc": {
    "kind": "dev",
    "methods": {},
    "version": 1
  },
  "userdoc": {
    "kind": "user",
    "methods": {},
    "version": 1
  }
}