{
  "contractName": "MathLibrary",
  "abi": [
    {
      "inputs": [
        {
          "internalType": "string",
          "name": "_str1",
          "type": "string"
        },
        {
          "internalType": "string",
          "name": "_str2",
          "type": "string"
        }
      ],
      "name": "addFloat",
      "outputs": [
        {
          "internalType": "uint256",
          "name": "wp",
          "type": "uint256"
        },
        {
          "internalType": "uint256",
          "name": "dp",
          "type": "uint256"
        },
        {
          "internalType": "string",
          "name": "_str",
          "type": "string"
        }
      ],
      "stateMutability": "pure",
      "type": "function",
      "constant": true
    },
    {
      "inputs": [
        {
          "internalType": "string",
          "name": "_str1",
          "type": "string"
        },
        {
          "internalType": "string",
          "name": "_str2",
          "type": "string"
        }
      ],
      "name": "subFloat",
      "outputs": [
        {
          "internalType": "uint256",
          "name": "wp",
          "type": "uint256"
        },
        {
          "internalType": "uint256",
          "name": "dp",
          "type": "uint256"
        },
        {
          "internalType": "string",
          "name": "_str",
          "type": "string"
        }
      ],
      "stateMutability": "pure",
      "type": "function",
      "constant": true
    },
    {
      "inputs": [
        {
          "internalType": "string",
          "name": "_str1",
          "type": "string"
        },
        {
          "internalType": "string",
          "name": "_str2",
          "type": "string"
        }
      ],
      "name": "mulFloat",
      "outputs": [
        {
          "internalType": "uint256",
          "name": "wp",
          "type": "uint256"
        },
        {
          "internalType": "uint256",
          "name": "dp",
          "type": "uint256"
        },
        {
          "internalType": "string",
          "name": "_str",
          "type": "string"
        }
      ],
      "stateMutability": "pure",
      "type": "function",
      "constant": true
    },
    {
      "inputs": [
        {
          "internalType": "string",
          "name": "_str1",
          "type": "string"
        },
        {
          "internalType": "string",
          "name": "_str2",
          "type": "string"
        }
      ],
      "name": "normalizeNumbers",
      "outputs": [
        {
          "internalType": "string",
          "name": "",
          "type": "string"
        },
        {
          "internalType": "string",
          "name": "",
          "type": "string"
        }
      ],
      "stateMutability": "pure",
      "type": "function",
      "constant": true
    },
    {
      "inputs": [
        {
          "internalType": "string",
          "name": "_str",
          "type": "string"
        }
      ],
      "name": "removeDot",
      "outputs": [
        {
          "internalType": "uint256",
          "name": "",
          "type": "uint256"
        },
        {
          "internalType": "bool",
          "name": "",
          "type": "bool"
        }
      ],
      "stateMutability": "pure",
      "type": "function",
      "constant": true
    },
    {
      "inputs": [
        {
          "internalType": "string",
          "name": "_str1",
          "type": "string"
        },
        {
          "internalType": "string",
          "name": "_str2",
          "type": "string"
        }
      ],
      "name": "removeDotAndNormalize",
      "outputs": [
        {
          "internalType": "uint256",
          "name": "",
          "type": "uint256"
        },
        {
          "internalType": "uint256",
          "name": "",
          "type": "uint256"
        }
      ],
      "stateMutability": "pure",
      "type": "function",
      "constant": true
    }
  ],
  "bytecode": "0x608060405234801561001057600080fd5b5061249c806100206000396000f3fe608060405234801561001057600080fd5b50600436106100625760003560e01c80632c5a583814610067578063384f6cdb14610099578063a196f789146100ca578063c811001f146100fb578063d82ece861461012d578063ee5bf7c91461015f575b600080fd5b610081600480360381019061007c9190611aa3565b610190565b60405161009093929190611bbc565b60405180910390f35b6100b360048036038101906100ae9190611aa3565b610976565b6040516100c1929190611bfa565b60405180910390f35b6100e460048036038101906100df9190611aa3565b610bdf565b6040516100f2929190611c31565b60405180910390f35b61011560048036038101906101109190611aa3565b610d73565b60405161012493929190611bbc565b60405180910390f35b61014760048036038101906101429190611aa3565b610ee5565b60405161015693929190611bbc565b60405180910390f35b61017960048036038101906101749190611c5a565b61120c565b604051610187929190611cbe565b60405180910390f35b600080606080606080606080606060006101a98c611258565b80975081985050506101ba8b611258565b80955081965050507f2d00000000000000000000000000000000000000000000000000000000000000876000815181106101f7576101f6611ce7565b5b602001015160f81c60f81b7effffffffffffffffffffffffffffffffffffffffffffffffffffffffffffff191614156102935761023e8760016102398a6114ff565b61150a565b96506040518060400160405280600181526020017f2d00000000000000000000000000000000000000000000000000000000000000815250925061028c8c60016102878f6114ff565b61150a565b9b506102cc565b6040518060400160405280600181526020017f2b0000000000000000000000000000000000000000000000000000000000000081525092505b7f2d000000000000000000000000000000000000000000000000000000000000008560008151811061030157610300611ce7565b5b602001015160f81c60f81b7effffffffffffffffffffffffffffffffffffffffffffffffffffffffffffff1916141561039d57610348856001610343886114ff565b61150a565b94506040518060400160405280600181526020017f2d0000000000000000000000000000000000000000000000000000000000000081525091506103968b60016103918e6114ff565b61150a565b9a506103d6565b6040518060400160405280600181526020017f2b0000000000000000000000000000000000000000000000000000000000000081525091505b7f30000000000000000000000000000000000000000000000000000000000000008760008151811061040b5761040a611ce7565b5b602001015160f81c60f81b7effffffffffffffffffffffffffffffffffffffffffffffffffffffffffffff191614806104a357507f30000000000000000000000000000000000000000000000000000000000000008560008151811061047457610473611ce7565b5b602001015160f81c60f81b7effffffffffffffffffffffffffffffffffffffffffffffffffffffffffffff1916145b156104d55760009950600098506040516020016104bf90611db9565b6040516020818303038152906040529750610968565b6104de8c61120c565b809250819b5050506104ef8b61120c565b809250819a50505061050b898b6105069190611e13565b611600565b975061054f61054a89600061051f886114ff565b6105288b6114ff565b6105329190611e6d565b61053b8d6114ff565b6105459190611ec3565b61150a565b611747565b809250819b5050506105a061059b89610567876114ff565b6105708a6114ff565b61057a9190611e6d565b6105838c6114ff565b61058d9190611ec3565b6105968c6114ff565b61150a565b611747565b809250819a5050507f2b00000000000000000000000000000000000000000000000000000000000000836000815181106105dd576105dc611ce7565b5b602001015160f81c60f81b7effffffffffffffffffffffffffffffffffffffffffffffffffffffffffffff191614801561067657507f2b000000000000000000000000000000000000000000000000000000000000008260008151811061064757610646611ce7565b5b602001015160f81c60f81b7effffffffffffffffffffffffffffffffffffffffffffffffffffffffffffff1916145b8061074b57507f2d00000000000000000000000000000000000000000000000000000000000000836000815181106106b1576106b0611ce7565b5b602001015160f81c60f81b7effffffffffffffffffffffffffffffffffffffffffffffffffffffffffffff191614801561074a57507f2d000000000000000000000000000000000000000000000000000000000000008260008151811061071b5761071a611ce7565b5b602001015160f81c60f81b7effffffffffffffffffffffffffffffffffffffffffffffffffffffffffffff1916145b5b15610789576107598a611600565b6107628a611600565b604051602001610773929190611f28565b6040516020818303038152906040529750610967565b7f2b00000000000000000000000000000000000000000000000000000000000000836000815181106107be576107bd611ce7565b5b602001015160f81c60f81b7effffffffffffffffffffffffffffffffffffffffffffffffffffffffffffff191614801561085757507f2d000000000000000000000000000000000000000000000000000000000000008260008151811061082857610827611ce7565b5b602001015160f81c60f81b7effffffffffffffffffffffffffffffffffffffffffffffffffffffffffffff1916145b8061092c57507f2d000000000000000000000000000000000000000000000000000000000000008360008151811061089257610891611ce7565b5b602001015160f81c60f81b7effffffffffffffffffffffffffffffffffffffffffffffffffffffffffffff191614801561092b57507f2b00000000000000000000000000000000000000000000000000000000000000826000815181106108fc576108fb611ce7565b5b602001015160f81c60f81b7effffffffffffffffffffffffffffffffffffffffffffffffffffffffffffff1916145b5b156109665761093a8a611600565b6109438a611600565b604051602001610954929190611fa3565b60405160208183030381529060405297505b5b5b505050505050509250925092565b60608060608060608060008061098b8a611258565b809650819750505061099c89611258565b80945081955050506109ad836114ff565b6109b6866114ff565b1015610a1a57610a17856040518060400160405280600181526020017f30000000000000000000000000000000000000000000000000000000000000008152506109ff886114ff565b610a08876114ff565b610a129190611ec3565b611862565b94505b610a23856114ff565b610a2c846114ff565b1015610a9057610a8d836040518060400160405280600181526020017f3000000000000000000000000000000000000000000000000000000000000000815250610a75866114ff565b610a7e896114ff565b610a889190611ec3565b611862565b92505b610a9a8a8a610bdf565b809250819350505080821415610af35784604051602001610abb9190612029565b604051602081830303815290604052945082604051602001610add9190612029565b6040516020818303038152906040529250610b8a565b80821115610b445784604051602001610b0c9190612097565b604051602081830303815290604052945082604051602001610b2e9190612029565b6040516020818303038152906040529250610b89565b84604051602001610b559190612029565b604051602081830303815290604052945082604051602001610b779190612097565b60405160208183030381529060405292505b5b8585604051602001610b9d929190611f28565b6040516020818303038152906040528484604051602001610bbf929190611f28565b604051602081830303815290604052975097505050505050509250929050565b6000806060806060806000806000610bf68b611258565b8097508198505050610c078a611258565b8095508196505050610c18846114ff565b610c21876114ff565b1015610c8557610c82866040518060400160405280600181526020017f3000000000000000000000000000000000000000000000000000000000000000815250610c6a896114ff565b610c73886114ff565b610c7d9190611ec3565b611862565b95505b610c8e866114ff565b610c97856114ff565b1015610cfb57610cf8846040518060400160405280600181526020017f3000000000000000000000000000000000000000000000000000000000000000815250610ce0876114ff565b610ce98a6114ff565b610cf39190611ec3565b611862565b93505b610d258787604051602001610d119291906120b9565b604051602081830303815290604052611747565b8094508193505050610d578585604051602001610d439291906120b9565b604051602081830303815290604052611747565b8094508192505050818198509850505050505050509250929050565b60008060606000806000806000606080610d8d8c8c610976565b8092508193505050610d9e826118d2565b8097508198505050610daf816118d2565b80955081965050508386610dc39190611e6d565b98507f3000000000000000000000000000000000000000000000000000000000000000610def8a611600565b600181518110610e0257610e01611ce7565b5b602001015160f81c60f81b7effffffffffffffffffffffffffffffffffffffffffffffffffffffffffffff191614610e535760018588610e429190611e6d565b610e4c9190611e6d565b9950610e62565b8487610e5f9190611e6d565b99505b610e6b8a611600565b610e88610e778b611600565b6002610e828d611600565b5161150a565b604051602001610e99929190611f28565b6040516020818303038152906040529750610ecf610eca610eb98b611600565b6002610ec48d611600565b5161150a565b611747565b809450819a505050505050505050509250925092565b60008060606000806000806000806000606080610f028e8e610976565b8092508193505050610f148282610bdf565b809550819650505083851415610f695760009b5060009a506040518060400160405280600381526020017f302e30000000000000000000000000000000000000000000000000000000000081525099506111fc565b838511156110b857610f7a826118d2565b809950819a505050610f8b816118d2565b80975081985050508588610f9f9190611ec3565b9a507f3000000000000000000000000000000000000000000000000000000000000000610fcb8c611600565b600181518110610fde57610fdd611ce7565b5b602001015160f81c60f81b7effffffffffffffffffffffffffffffffffffffffffffffffffffffffffffff19161461102f576001878a61101e9190611ec3565b6110289190611ec3565b9b5061103e565b868961103b9190611ec3565b9b505b6110478c611600565b6110646110538d611600565b600261105e8f611600565b5161150a565b604051602001611075929190611f28565b60405160208183030381529060405299506110ab6110a66110958d611600565b60026110a08f611600565b5161150a565b611747565b809450819c5050506111fb565b6110c1826118d2565b809950819a5050506110d2816118d2565b809750819850505087866110e69190611ec3565b9a507f30000000000000000000000000000000000000000000000000000000000000006111128c611600565b60018151811061112557611124611ce7565b5b602001015160f81c60f81b7effffffffffffffffffffffffffffffffffffffffffffffffffffffffffffff19161461117657600189886111659190611ec3565b61116f9190611ec3565b9b50611185565b88876111829190611ec3565b9b505b61118e8c611600565b6111ab61119a8d611600565b60026111a58f611600565b5161150a565b6040516020016111bc929190611fa3565b60405160208183030381529060405299506111f26111ed6111dc8d611600565b60026111e78f611600565b5161150a565b611747565b809450819c5050505b5b5050505050505050509250925092565b60008060608061121b85611258565b809250819350505061124d82826040516020016112399291906120b9565b604051602081830303815290604052611747565b935093505050915091565b606080600083519050600080600090505b8281101561132e576040518060400160405280600181526020017f2e000000000000000000000000000000000000000000000000000000000000008152506040516020016112b79190612124565b604051602081830303815290604052805190602001208682815181106112e0576112df611ce7565b5b602001015160f81c60f81b6040516020016112fb9190612188565b60405160208183030381529060405280519060200120141561131b578091505b8080611326906121a3565b915050611269565b5060008167ffffffffffffffff81111561134b5761134a611978565b5b6040519080825280601f01601f19166020018201604052801561137d5781602001600182028036833780820191505090505b5090506000600183856113909190611ec3565b61139a9190611ec3565b67ffffffffffffffff8111156113b3576113b2611978565b5b6040519080825280601f01601f1916602001820160405280156113e55781602001600182028036833780820191505090505b50905060005b848110156114ef578381101561145c5787818151811061140e5761140d611ce7565b5b602001015160f81c60f81b83828151811061142c5761142b611ce7565b5b60200101907effffffffffffffffffffffffffffffffffffffffffffffffffffffffffffff1916908160001a9053505b838111156114dc5787818151811061147757611476611ce7565b5b602001015160f81c60f81b82600186846114919190611ec3565b61149b9190611ec3565b815181106114ac576114ab611ce7565b5b60200101907effffffffffffffffffffffffffffffffffffffffffffffffffffffffffffff1916908160001a9053505b80806114e7906121a3565b9150506113eb565b5081819550955050505050915091565b600081519050919050565b60606000838361151a9190611ec3565b67ffffffffffffffff81111561153357611532611978565b5b6040519080825280601f01601f1916602001820160405280156115655781602001600182028036833780820191505090505b50905060008490505b838110156115f45785818151811061158957611588611ce7565b5b602001015160f81c60f81b8286836115a19190611ec3565b815181106115b2576115b1611ce7565b5b60200101907effffffffffffffffffffffffffffffffffffffffffffffffffffffffffffff1916908160001a90535080806115ec906121a3565b91505061156e565b50809150509392505050565b60606000821415611648576040518060400160405280600181526020017f30000000000000000000000000000000000000000000000000000000000000008152509050611742565b6000829050600061165882611917565b905060008167ffffffffffffffff81111561167657611675611978565b5b6040519080825280601f01601f1916602001820160405280156116a85781602001600182028036833780820191505090505b50905060008290508593505b6000841461173a57600a846116c9919061221b565b60306116d59190611e6d565b60f81b82826116e39061224c565b925082815181106116f7576116f6611ce7565b5b60200101907effffffffffffffffffffffffffffffffffffffffffffffffffffffffffffff1916908160001a905350600a846117339190612276565b93506116b4565b819450505050505b919050565b60008060005b8351811015611854576000603085838151811061176d5761176c611ce7565b5b602001015160f81c60f81b60f81c61178591906122b4565b60ff1610806117c35750600960308583815181106117a6576117a5611ce7565b5b602001015160f81c60f81b60f81c6117be91906122b4565b60ff16115b156117d557600080925092505061185d565b60018185516117e49190611ec3565b6117ee9190611ec3565b600a6117fa919061241b565b603085838151811061180f5761180e611ce7565b5b602001015160f81c60f81b60f81c61182791906122b4565b60ff166118349190611e13565b8361183f9190611e6d565b9250808061184c906121a3565b91505061174d565b50816001915091505b915091565b606060005b828110156118a65781846040516020016118829291906120b9565b6040516020818303038152906040529150808061189e906121a3565b915050611867565b5083816040516020016118ba9291906120b9565b60405160208183030381529060405290509392505050565b6000806000806060806118e487611258565b80925081935050506118f582611747565b809550819750505061190681611747565b809450819650505050505050915091565b60005b6000821461194457808061192d906121a3565b915050600a8261193d9190612276565b915061191a565b919050565b6000604051905090565b600080fd5b600080fd5b600080fd5b600080fd5b6000601f19601f8301169050919050565b7f4e487b7100000000000000000000000000000000000000000000000000000000600052604160045260246000fd5b6119b082611967565b810181811067ffffffffffffffff821117156119cf576119ce611978565b5b80604052505050565b60006119e2611949565b90506119ee82826119a7565b919050565b600067ffffffffffffffff821115611a0e57611a0d611978565b5b611a1782611967565b9050602081019050919050565b82818337600083830152505050565b6000611a46611a41846119f3565b6119d8565b905082815260208101848484011115611a6257611a61611962565b5b611a6d848285611a24565b509392505050565b600082601f830112611a8a57611a8961195d565b5b8135611a9a848260208601611a33565b91505092915050565b60008060408385031215611aba57611ab9611953565b5b600083013567ffffffffffffffff811115611ad857611ad7611958565b5b611ae485828601611a75565b925050602083013567ffffffffffffffff811115611b0557611b04611958565b5b611b1185828601611a75565b9150509250929050565b6000819050919050565b611b2e81611b1b565b82525050565b600081519050919050565b600082825260208201905092915050565b60005b83811015611b6e578082015181840152602081019050611b53565b83811115611b7d576000848401525b50505050565b6000611b8e82611b34565b611b988185611b3f565b9350611ba8818560208601611b50565b611bb181611967565b840191505092915050565b6000606082019050611bd16000830186611b25565b611bde6020830185611b25565b8181036040830152611bf08184611b83565b9050949350505050565b60006040820190508181036000830152611c148185611b83565b90508181036020830152611c288184611b83565b90509392505050565b6000604082019050611c466000830185611b25565b611c536020830184611b25565b9392505050565b600060208284031215611c7057611c6f611953565b5b600082013567ffffffffffffffff811115611c8e57611c8d611958565b5b611c9a84828501611a75565b91505092915050565b60008115159050919050565b611cb881611ca3565b82525050565b6000604082019050611cd36000830185611b25565b611ce06020830184611caf565b9392505050565b7f4e487b7100000000000000000000000000000000000000000000000000000000600052603260045260246000fd5b600081905092915050565b7f3000000000000000000000000000000000000000000000000000000000000000600082015250565b6000611d57600183611d16565b9150611d6282611d21565b600182019050919050565b7f2e00000000000000000000000000000000000000000000000000000000000000600082015250565b6000611da3600183611d16565b9150611dae82611d6d565b600182019050919050565b6000611dc482611d4a565b9150611dcf82611d96565b9150611dda82611d4a565b9150819050919050565b7f4e487b7100000000000000000000000000000000000000000000000000000000600052601160045260246000fd5b6000611e1e82611b1b565b9150611e2983611b1b565b9250817fffffffffffffffffffffffffffffffffffffffffffffffffffffffffffffffff0483118215151615611e6257611e61611de4565b5b828202905092915050565b6000611e7882611b1b565b9150611e8383611b1b565b9250827fffffffffffffffffffffffffffffffffffffffffffffffffffffffffffffffff03821115611eb857611eb7611de4565b5b828201905092915050565b6000611ece82611b1b565b9150611ed983611b1b565b925082821015611eec57611eeb611de4565b5b828203905092915050565b6000611f0282611b34565b611f0c8185611d16565b9350611f1c818560208601611b50565b80840191505092915050565b6000611f348285611ef7565b9150611f3f82611d96565b9150611f4b8284611ef7565b91508190509392505050565b7f2d00000000000000000000000000000000000000000000000000000000000000600082015250565b6000611f8d600183611d16565b9150611f9882611f57565b600182019050919050565b6000611fae82611f80565b9150611fba8285611ef7565b9150611fc582611d96565b9150611fd18284611ef7565b91508190509392505050565b7f3130000000000000000000000000000000000000000000000000000000000000600082015250565b6000612013600283611d16565b915061201e82611fdd565b600282019050919050565b600061203482612006565b91506120408284611ef7565b915081905092915050565b7f3330000000000000000000000000000000000000000000000000000000000000600082015250565b6000612081600283611d16565b915061208c8261204b565b600282019050919050565b60006120a282612074565b91506120ae8284611ef7565b915081905092915050565b60006120c58285611ef7565b91506120d18284611ef7565b91508190509392505050565b600081519050919050565b600081905092915050565b60006120fe826120dd565b61210881856120e8565b9350612118818560208601611b50565b80840191505092915050565b600061213082846120f3565b915081905092915050565b60007fff0000000000000000000000000000000000000000000000000000000000000082169050919050565b6000819050919050565b61218261217d8261213b565b612167565b82525050565b60006121948284612171565b60018201915081905092915050565b60006121ae82611b1b565b91507fffffffffffffffffffffffffffffffffffffffffffffffffffffffffffffffff8214156121e1576121e0611de4565b5b600182019050919050565b7f4e487b7100000000000000000000000000000000000000000000000000000000600052601260045260246000fd5b600061222682611b1b565b915061223183611b1b565b925082612241576122406121ec565b5b828206905092915050565b600061225782611b1b565b9150600082141561226b5761226a611de4565b5b600182039050919050565b600061228182611b1b565b915061228c83611b1b565b92508261229c5761229b6121ec565b5b828204905092915050565b600060ff82169050919050565b60006122bf826122a7565b91506122ca836122a7565b9250828210156122dd576122dc611de4565b5b828203905092915050565b60008160011c9050919050565b6000808291508390505b600185111561233f5780860481111561231b5761231a611de4565b5b600185161561232a5780820291505b8081029050612338856122e8565b94506122ff565b94509492505050565b6000826123585760019050612414565b816123665760009050612414565b816001811461237c5760028114612386576123b5565b6001915050612414565b60ff84111561239857612397611de4565b5b8360020a9150848211156123af576123ae611de4565b5b50612414565b5060208310610133831016604e8410600b84101617156123ea5782820a9050838111156123e5576123e4611de4565b5b612414565b6123f784848460016122f5565b9250905081840481111561240e5761240d611de4565b5b81810290505b9392505050565b600061242682611b1b565b915061243183611b1b565b925061245e7fffffffffffffffffffffffffffffffffffffffffffffffffffffffffffffffff8484612348565b90509291505056fea26469706673582212204641002712389bc629863a4b283a90ba8b3a2415cbd564faea3fc671d6a1739b64736f6c63430008090033",
  "immutableReferences": {},
  "source": "// SPDX-License-Identifier: MIT\npragma solidity 0.8.9;\n\ncontract MathLibrary {\n    //=== add two floating points. Input and output are all unsigned integers\n    function addFloat(string memory _str1, string memory _str2)\n        public\n        pure\n        returns (\n            uint256 wp,\n            uint256 dp,\n            string memory _str\n        )\n    {\n        uint256 wp1;\n        uint256 dp1;\n        uint256 wp2;\n        uint256 dp2;\n        bool isUint;\n\n        string memory str1;\n        string memory str2;\n\n        (str1, str2) = normalizeNumbers(_str1, _str2);\n\n        (wp1, dp1) = splitDecimalStringToIntegers(str1);\n        (wp2, dp2) = splitDecimalStringToIntegers(str2);\n\n        dp = dp1 + dp2;\n\n        if (bytes(uintToString(dp))[1] != \"0\") {\n            wp = wp1 + wp2 + 1;\n        } else {\n            wp = wp1 + wp2;\n        }\n\n        _str = string(\n            abi.encodePacked(\n                uintToString(wp),\n                \".\",\n                substring(\n                    string(bytes(uintToString(dp))),\n                    2,\n                    bytes(uintToString(dp)).length\n                )\n            )\n        );\n\n        (dp, isUint) = strToUint(\n            substring(\n                string(bytes(uintToString(dp))),\n                2,\n                bytes(uintToString(dp)).length\n            )\n        );\n    }\n\n    //=== substraction with two floating points. Input and output are all unsigned integers\n    function subFloat(string memory _str1, string memory _str2)\n        public\n        pure\n        returns (\n            uint256 wp,\n            uint256 dp,\n            string memory _str\n        )\n    {\n        uint256 wp1;\n        uint256 dp1;\n        uint256 wp2;\n        uint256 dp2;\n        uint256 num1;\n        uint256 num2;\n        bool isUint;\n\n        string memory str1;\n        string memory str2;\n\n        (str1, str2) = normalizeNumbers(_str1, _str2);\n\n        (num1, num2) = removeDotAndNormalize(str1, str2);\n\n        if (num1 == num2) {\n            wp = 0;\n            dp = 0;\n            _str = \"0.0\";\n        } else if (num1 > num2) {\n            (wp1, dp1) = splitDecimalStringToIntegers(str1);\n            (wp2, dp2) = splitDecimalStringToIntegers(str2);\n\n            dp = dp1 - dp2;\n\n            if (bytes(uintToString(dp))[1] != \"0\") {\n                wp = wp1 - wp2 - 1;\n            } else {\n                wp = wp1 - wp2;\n            }\n\n            _str = string(\n                abi.encodePacked(\n                    uintToString(wp),\n                    \".\",\n                    substring(\n                        string(bytes(uintToString(dp))),\n                        2,\n                        bytes(uintToString(dp)).length\n                    )\n                )\n            );\n            (dp, isUint) = strToUint(\n                substring(\n                    string(bytes(uintToString(dp))),\n                    2,\n                    bytes(uintToString(dp)).length\n                )\n            );\n        } else {\n            (wp1, dp1) = splitDecimalStringToIntegers(str1);\n            (wp2, dp2) = splitDecimalStringToIntegers(str2);\n\n            dp = dp2 - dp1;\n\n            if (bytes(uintToString(dp))[1] != \"0\") {\n                wp = wp2 - wp1 - 1;\n            } else {\n                wp = wp2 - wp1;\n            }\n\n            _str = string(\n                abi.encodePacked(\n                    \"-\",\n                    uintToString(wp),\n                    \".\",\n                    substring(\n                        string(bytes(uintToString(dp))),\n                        2,\n                        bytes(uintToString(dp)).length\n                    )\n                )\n            );\n            (dp, isUint) = strToUint(\n                substring(\n                    string(bytes(uintToString(dp))),\n                    2,\n                    bytes(uintToString(dp)).length\n                )\n            );\n        }\n    }\n\n    //=== Multiplication of two floating points. Input and output are all unsigned integers\n    function mulFloat(string memory _str1, string memory _str2)\n        public\n        pure\n        returns (\n            uint256 wp,\n            uint256 dp,\n            string memory _str\n        )\n    {\n        string memory wpStr1;\n        string memory dpStr1;\n        string memory wpStr2;\n        string memory dpStr2;\n        string memory sign1;\n        string memory sign2;\n\n        bool isUint;\n\n        (wpStr1, dpStr1) = splitstring(_str1);\n        (wpStr2, dpStr2) = splitstring(_str2);\n\n        if (bytes(wpStr1)[0] == \"-\") {\n            wpStr1 = substring(wpStr1, 1, lengthOfString(wpStr1));\n            sign1 = \"-\";\n            _str1 = substring(_str1, 1, lengthOfString(_str1));\n        } else {\n            sign1 = \"+\";\n        }\n\n        if (bytes(wpStr2)[0] == \"-\") {\n            wpStr2 = substring(wpStr2, 1, lengthOfString(wpStr2));\n            sign2 = \"-\";\n            _str2 = substring(_str2, 1, lengthOfString(_str2));\n        } else {\n            sign2 = \"+\";\n        }\n\n        if (bytes(wpStr1)[0] == \"0\" || bytes(wpStr2)[0] == \"0\") {\n            wp = 0;\n            dp = 0;\n            _str = string(abi.encodePacked(\"0\", \".\", \"0\"));\n        } else {\n            (wp, isUint) = removeDot(_str1); // if _str1 = \"3.14\" => wp = 314\n            (dp, isUint) = removeDot(_str2); // if _str2 = \"3.14\" => dp = 314\n\n            _str = uintToString(wp * dp);\n\n            (wp, isUint) = strToUint(\n                substring(\n                    _str,\n                    0,\n                    lengthOfString(_str) -\n                        (lengthOfString(dpStr1) + lengthOfString(dpStr2))\n                )\n            );\n            (dp, isUint) = strToUint(\n                substring(\n                    _str,\n                    lengthOfString(_str) -\n                        (lengthOfString(dpStr1) + lengthOfString(dpStr2)),\n                    lengthOfString(_str)\n                )\n            );\n\n            if (\n                (bytes(sign1)[0] == \"+\" && bytes(sign2)[0] == \"+\") ||\n                (bytes(sign1)[0] == \"-\" && bytes(sign2)[0] == \"-\")\n            ) {\n                _str = string(\n                    abi.encodePacked(uintToString(wp), \".\", uintToString(dp))\n                );\n            } else if (\n                (bytes(sign1)[0] == \"+\" && bytes(sign2)[0] == \"-\") ||\n                (bytes(sign1)[0] == \"-\" && bytes(sign2)[0] == \"+\")\n            ) {\n                _str = string(\n                    abi.encodePacked(\n                        \"-\",\n                        uintToString(wp),\n                        \".\",\n                        uintToString(dp)\n                    )\n                );\n            }\n        }\n    }\n\n    //=== Find the length of an unsigned integer\n    function lengthOfUint(uint256 _num) private pure returns (uint256 length) {\n        while (_num != 0) {\n            length++;\n            _num /= 10;\n        }\n    }\n\n    //=== Find the number of bytes in a string\n    function lengthOfString(string memory _str) private pure returns (uint256) {\n        return bytes(_str).length;\n    }\n\n    //=== Return the maximum number\n    function max(uint256 _num1, uint256 _num2)\n        private\n        pure\n        returns (uint256 maxNumber)\n    {\n        _num1 >= _num2 ? maxNumber = _num1 : maxNumber = _num2;\n    }\n\n    //=== Separates decimal number (string) to whole number (string) and decimal parts (string)\n    function splitstring(string memory _str)\n        private\n        pure\n        returns (string memory, string memory)\n    {\n        uint256 n = bytes(_str).length;\n\n        uint256 limit;\n\n        for (uint256 i = 0; i < n; i++) {\n            if (\n                keccak256(abi.encodePacked(bytes(_str)[i])) ==\n                keccak256(abi.encodePacked(bytes(\".\")))\n            ) {\n                limit = i;\n            }\n        }\n\n        bytes memory wholeNumberPart = new bytes(limit);\n        bytes memory decimalPart = new bytes(n - limit - 1);\n\n        for (uint256 i = 0; i < n; i++) {\n            if (i < limit) {\n                wholeNumberPart[i] = bytes(_str)[i];\n            }\n\n            if (i > limit) {\n                decimalPart[i - limit - 1] = bytes(_str)[i];\n            }\n        }\n\n        return (string(wholeNumberPart), string(decimalPart));\n    }\n\n    //=== extract part of string starting at _startIndex and ending at _endIndex\n    function substring(\n        string memory _str,\n        uint256 _startIndex,\n        uint256 _endIndex\n    ) private pure returns (string memory) {\n        bytes memory result = new bytes(_endIndex - _startIndex);\n\n        for (uint256 i = _startIndex; i < _endIndex; i++) {\n            result[i - _startIndex] = bytes(_str)[i];\n        }\n\n        return string(result);\n    }\n\n    //=== Convert a string to a uint with error handling\n    function strToUint(string memory _str)\n        private\n        pure\n        returns (uint256 res, bool err)\n    {\n        for (uint256 i = 0; i < bytes(_str).length; i++) {\n            if (\n                (uint8(bytes(_str)[i]) - 48) < 0 ||\n                (uint8(bytes(_str)[i]) - 48) > 9\n            ) {\n                return (0, false);\n            }\n            res +=\n                (uint8(bytes(_str)[i]) - 48) *\n                10**(bytes(_str).length - i - 1);\n        }\n\n        return (res, true);\n    }\n\n    function splitDecimalStringToIntegers(string memory _str)\n        private\n        pure\n        returns (uint256 wp, uint256 dp)\n    {\n        bool wpBool;\n        bool dpBool;\n        string memory wholeNumberPart;\n        string memory decimalPart;\n\n        (wholeNumberPart, decimalPart) = splitstring(_str);\n\n        (wp, wpBool) = strToUint(wholeNumberPart);\n        (dp, dpBool) = strToUint(decimalPart);\n\n        return (wp, dp);\n    }\n\n    //=== Separates decimal number (string) to whole number (uint) and decimal (uint) parts\n    function uintToString(uint256 _i) private pure returns (string memory str) {\n        if (_i == 0) return \"0\";\n\n        uint256 j = _i;\n        uint256 length;\n\n        length = lengthOfUint(j);\n\n        bytes memory bstr = new bytes(length);\n        uint256 k = length;\n        j = _i;\n\n        while (j != 0) {\n            bstr[--k] = bytes1(uint8(48 + (j % 10)));\n            j /= 10;\n        }\n\n        str = string(bstr);\n\n        return str;\n    }\n\n    // Add 10 and 30 at the bigining of the decimal parts and add zero at the end to have same number of digits for the two Input\n    function normalizeNumbers(string memory _str1, string memory _str2)\n        public\n        pure\n        returns (string memory, string memory)\n    {\n        string memory wpStr1;\n        string memory dpStr1;\n        string memory wpStr2;\n        string memory dpStr2;\n\n        uint256 num1;\n        uint256 num2;\n        //bool isUint;\n\n        (wpStr1, dpStr1) = splitstring(_str1);\n        (wpStr2, dpStr2) = splitstring(_str2);\n\n        if (lengthOfString(dpStr1) < lengthOfString(dpStr2)) {\n            dpStr1 = paddRight(\n                dpStr1,\n                \"0\",\n                lengthOfString(dpStr2) - lengthOfString(dpStr1)\n            );\n        }\n\n        if (lengthOfString(dpStr2) < lengthOfString(dpStr1)) {\n            dpStr2 = paddRight(\n                dpStr2,\n                \"0\",\n                lengthOfString(dpStr1) - lengthOfString(dpStr2)\n            );\n        }\n\n        (num1, num2) = removeDotAndNormalize(_str1, _str2);\n\n        if (num1 == num2) {\n            dpStr1 = string(abi.encodePacked(\"10\", dpStr1));\n            dpStr2 = string(abi.encodePacked(\"10\", dpStr2));\n        } else if (num1 > num2) {\n            dpStr1 = string(abi.encodePacked(\"30\", dpStr1));\n            dpStr2 = string(abi.encodePacked(\"10\", dpStr2));\n        } else {\n            dpStr1 = string(abi.encodePacked(\"10\", dpStr1));\n            dpStr2 = string(abi.encodePacked(\"30\", dpStr2));\n        }\n\n        return (\n            string(abi.encodePacked(wpStr1, \".\", dpStr1)),\n            string(abi.encodePacked(wpStr2, \".\", dpStr2))\n        );\n    }\n\n    //=== Put numbers to equal number of digits\n    function equalDigitsRight(uint256 _num1, uint256 _num2)\n        private\n        pure\n        returns (uint256 num1, uint256 num2)\n    {\n        if (lengthOfUint(_num1) == lengthOfUint(_num2)) {\n            num1 = _num1;\n            num2 = _num2;\n        } else {\n            if (lengthOfUint(_num1) > lengthOfUint(_num2)) {\n                string memory str2 = uintToString(_num2);\n                bool isUint;\n\n                str2 = paddRight(\n                    str2,\n                    \"0\",\n                    lengthOfUint(_num1) - lengthOfUint(_num2)\n                );\n\n                num1 = _num1;\n                (num2, isUint) = strToUint(str2);\n            } else {\n                string memory str1 = uintToString(_num1);\n                bool isUint;\n\n                str1 = paddRight(\n                    str1,\n                    \"0\",\n                    lengthOfUint(_num2) - lengthOfUint(_num1)\n                );\n\n                (num1, isUint) = strToUint(str1);\n                num2 = _num2;\n            }\n        }\n    }\n\n    //=== Put numbers to equal number of digits\n    function equalDigitsLeft(uint256 _num1, uint256 _num2)\n        private\n        pure\n        returns (uint256 num1, uint256 num2)\n    {\n        if (lengthOfUint(_num1) == lengthOfUint(_num2)) {\n            num1 = _num1;\n            num2 = _num2;\n        } else {\n            if (lengthOfUint(_num1) > lengthOfUint(_num2)) {\n                string memory str2 = uintToString(_num2);\n                bool isUint;\n\n                str2 = paddLeft(\n                    str2,\n                    \"0\",\n                    lengthOfUint(_num1) - lengthOfUint(_num2)\n                );\n\n                num1 = _num1;\n                (num2, isUint) = strToUint(str2);\n            } else {\n                string memory str1 = uintToString(_num1);\n                bool isUint;\n\n                str1 = paddLeft(\n                    str1,\n                    \"0\",\n                    lengthOfUint(_num2) - lengthOfUint(_num1)\n                );\n\n                (num1, isUint) = strToUint(str1);\n                num2 = _num2;\n            }\n        }\n    }\n\n    //=== Removing the dot \".\" of a floating point number. Ex: \"12.45 => 1245\"\n    function removeDot(string memory _str) public pure returns (uint256, bool) {\n        string memory wp;\n        string memory dp;\n\n        (wp, dp) = splitstring(_str);\n\n        return strToUint(string(abi.encodePacked(wp, dp)));\n    }\n\n    //=== Removing the dot \".\" of two floating point numbers and normalizing. Ex: \"(3.14, 14.3) => (314, 1430)\"\n    function removeDotAndNormalize(string memory _str1, string memory _str2)\n        public\n        pure\n        returns (uint256, uint256)\n    {\n        string memory wp1;\n        string memory dp1;\n        string memory wp2;\n        string memory dp2;\n        bool isUint;\n        uint256 num1;\n        uint256 num2;\n\n        (wp1, dp1) = splitstring(_str1);\n        (wp2, dp2) = splitstring(_str2);\n\n        if (lengthOfString(dp1) < lengthOfString(dp2)) {\n            dp1 = paddRight(\n                dp1,\n                \"0\",\n                lengthOfString(dp2) - lengthOfString(dp1)\n            );\n        }\n\n        if (lengthOfString(dp2) < lengthOfString(dp1)) {\n            dp2 = paddRight(\n                dp2,\n                \"0\",\n                lengthOfString(dp1) - lengthOfString(dp2)\n            );\n        }\n\n        (num1, isUint) = strToUint(string(abi.encodePacked(wp1, dp1)));\n        (num2, isUint) = strToUint(string(abi.encodePacked(wp2, dp2)));\n\n        return (num1, num2);\n    }\n\n    //=== Padding Right\n    function paddRight(\n        string memory _str,\n        string memory _padStr,\n        uint256 _padSize\n    ) private pure returns (string memory str) {\n        for (uint256 i = 0; i < _padSize; i++) {\n            str = string(abi.encodePacked(str, _padStr));\n        }\n\n        return string(abi.encodePacked(_str, str));\n    }\n\n    //=== Padding Left\n    function paddLeft(\n        string memory _str,\n        string memory _padStr,\n        uint256 _padSize\n    ) private pure returns (string memory str) {\n        for (uint256 i = 0; i < _padSize; i++) {\n            str = string(abi.encodePacked(str, _padStr));\n        }\n\n        return string(abi.encodePacked(str, _str));\n    }\n}\n",
  "sourcePath": "/Users/samuel/Documents/Projet/Pojet_Dev/Solity_Math/contracts/MathLibrary.sol",
  "compiler": {
    "name": "solc",
    "version": "0.8.9+commit.e5eed63a.Emscripten.clang"
  },
  "schemaVersion": "3.3.4",
  "updatedAt": "2021-10-15T01:15:06.885Z",
  "networkType": "ethereum",
  "devdoc": {
    "kind": "dev",
    "methods": {},
    "version": 1
  },
  "userdoc": {
    "kind": "user",
    "methods": {},
    "version": 1
  }
}