{
  "contractName": "MathLibrary",
  "abi": [
    {
      "inputs": [
        {
          "internalType": "string",
          "name": "_str1",
          "type": "string"
        },
        {
          "internalType": "string",
          "name": "_str2",
          "type": "string"
        }
      ],
      "name": "addFloat",
      "outputs": [
        {
          "internalType": "uint256",
          "name": "wp",
          "type": "uint256"
        },
        {
          "internalType": "uint256",
          "name": "dp",
          "type": "uint256"
        },
        {
          "internalType": "string",
          "name": "_str",
          "type": "string"
        }
      ],
      "stateMutability": "pure",
      "type": "function",
      "constant": true
    },
    {
      "inputs": [
        {
          "internalType": "string",
          "name": "_str1",
          "type": "string"
        },
        {
          "internalType": "string",
          "name": "_str2",
          "type": "string"
        }
      ],
      "name": "subFloat",
      "outputs": [
        {
          "internalType": "uint256",
          "name": "wp",
          "type": "uint256"
        },
        {
          "internalType": "uint256",
          "name": "dp",
          "type": "uint256"
        },
        {
          "internalType": "string",
          "name": "_str",
          "type": "string"
        }
      ],
      "stateMutability": "pure",
      "type": "function",
      "constant": true
    },
    {
      "inputs": [
        {
          "internalType": "string",
          "name": "_str1",
          "type": "string"
        },
        {
          "internalType": "string",
          "name": "_str2",
          "type": "string"
        }
      ],
      "name": "mulFloat",
      "outputs": [
        {
          "internalType": "uint256",
          "name": "wp",
          "type": "uint256"
        },
        {
          "internalType": "uint256",
          "name": "dp",
          "type": "uint256"
        },
        {
          "internalType": "string",
          "name": "_str",
          "type": "string"
        }
      ],
      "stateMutability": "pure",
      "type": "function",
      "constant": true
    },
    {
      "inputs": [
        {
          "internalType": "string",
          "name": "_str",
          "type": "string"
        }
      ],
      "name": "strToUintV2",
      "outputs": [
        {
          "internalType": "uint256",
          "name": "res",
          "type": "uint256"
        }
      ],
      "stateMutability": "pure",
      "type": "function",
      "constant": true
    },
    {
      "inputs": [
        {
          "internalType": "string",
          "name": "_str1",
          "type": "string"
        },
        {
          "internalType": "string",
          "name": "_str2",
          "type": "string"
        }
      ],
      "name": "normalizeNumbers",
      "outputs": [
        {
          "internalType": "string",
          "name": "",
          "type": "string"
        },
        {
          "internalType": "string",
          "name": "",
          "type": "string"
        }
      ],
      "stateMutability": "pure",
      "type": "function",
      "constant": true
    },
    {
      "inputs": [
        {
          "internalType": "string",
          "name": "_str",
          "type": "string"
        }
      ],
      "name": "removeDot",
      "outputs": [
        {
          "internalType": "uint256",
          "name": "",
          "type": "uint256"
        }
      ],
      "stateMutability": "pure",
      "type": "function",
      "constant": true
    },
    {
      "inputs": [
        {
          "internalType": "string",
          "name": "_str1",
          "type": "string"
        },
        {
          "internalType": "string",
          "name": "_str2",
          "type": "string"
        }
      ],
      "name": "removeDotAndNormalize",
      "outputs": [
        {
          "internalType": "uint256",
          "name": "",
          "type": "uint256"
        },
        {
          "internalType": "uint256",
          "name": "",
          "type": "uint256"
        }
      ],
      "stateMutability": "pure",
      "type": "function",
      "constant": true
    }
  ],
  "bytecode": "0x608060405234801561001057600080fd5b5061290c806100206000396000f3fe608060405234801561001057600080fd5b506004361061007d5760003560e01c8063a196f7891161005b578063a196f78914610115578063c811001f14610146578063d82ece8614610178578063ee5bf7c9146101aa5761007d565b80632c5a583814610082578063384f6cdb146100b4578063a01a53e6146100e5575b600080fd5b61009c60048036038101906100979190611f1a565b6101da565b6040516100ab93929190612033565b60405180910390f35b6100ce60048036038101906100c99190611f1a565b610aa5565b6040516100dc929190612071565b60405180910390f35b6100ff60048036038101906100fa91906120a8565b610d0e565b60405161010c91906120f1565b60405180910390f35b61012f600480360381019061012a9190611f1a565b610e21565b60405161013d92919061210c565b60405180910390f35b610160600480360381019061015b9190611f1a565b610fb5565b60405161016f93929190612033565b60405180910390f35b610192600480360381019061018d9190611f1a565b61135f565b6040516101a193929190612033565b60405180910390f35b6101c460048036038101906101bf91906120a8565b611686565b6040516101d191906120f1565b60405180910390f35b60008060608060608060608060606101f18b6116cf565b80965081975050506102028a6116cf565b80945081955050507f2d000000000000000000000000000000000000000000000000000000000000008660008151811061023f5761023e612135565b5b602001015160f81c60f81b7effffffffffffffffffffffffffffffffffffffffffffffffffffffffffffff191614156102db5761028686600161028189611976565b611981565b95506040518060400160405280600181526020017f2d0000000000000000000000000000000000000000000000000000000000000081525091506102d48b60016102cf8e611976565b611981565b9a50610314565b6040518060400160405280600181526020017f2b0000000000000000000000000000000000000000000000000000000000000081525091505b7f2d000000000000000000000000000000000000000000000000000000000000008460008151811061034957610348612135565b5b602001015160f81c60f81b7effffffffffffffffffffffffffffffffffffffffffffffffffffffffffffff191614156103e55761039084600161038b87611976565b611981565b93506040518060400160405280600181526020017f2d0000000000000000000000000000000000000000000000000000000000000081525090506103de8a60016103d98d611976565b611981565b995061041e565b6040518060400160405280600181526020017f2b0000000000000000000000000000000000000000000000000000000000000081525090505b600061042987610d0e565b14801561043e5750600061043c86610d0e565b145b806104655750600061044f85610d0e565b1480156104645750600061046284610d0e565b145b5b1561049757600098506000975060405160200161048190612207565b6040516020818303038152906040529650610a98565b6104a08b611686565b98506104ab8a611686565b97506104c1888a6104bc9190612261565b611a77565b96506104cc89611bbe565b60016104d78d611976565b6104e191906122bb565b6104eb91906122bb565b98506104f688611bbe565b60016105018c611976565b61050b91906122bb565b61051591906122bb565b97506000888a61052591906122ef565b146105775760005b888a61053991906122ef565b81101561057557876040516020016105519190612376565b6040516020818303038152906040529750808061056d90612398565b91505061052d565b505b6105b96105b488600061058987611976565b6105928a611976565b61059c91906122ef565b6105a58c611976565b6105af91906122bb565b611981565b610d0e565b98506106046105ff886105cb86611976565b6105d489611976565b6105de91906122ef565b6105e78b611976565b6105f191906122bb565b6105fa8b611976565b611981565b610d0e565b97507f2b000000000000000000000000000000000000000000000000000000000000008260008151811061063b5761063a612135565b5b602001015160f81c60f81b7effffffffffffffffffffffffffffffffffffffffffffffffffffffffffffff19161480156106d457507f2b00000000000000000000000000000000000000000000000000000000000000816000815181106106a5576106a4612135565b5b602001015160f81c60f81b7effffffffffffffffffffffffffffffffffffffffffffffffffffffffffffff1916145b806107a957507f2d000000000000000000000000000000000000000000000000000000000000008260008151811061070f5761070e612135565b5b602001015160f81c60f81b7effffffffffffffffffffffffffffffffffffffffffffffffffffffffffffff19161480156107a857507f2d000000000000000000000000000000000000000000000000000000000000008160008151811061077957610778612135565b5b602001015160f81c60f81b7effffffffffffffffffffffffffffffffffffffffffffffffffffffffffffff1916145b5b15610850576107e88760006107bd86611976565b6107c689611976565b6107d091906122ef565b6107d98b611976565b6107e391906122bb565b611981565b610829886107f586611976565b6107fe89611976565b61080891906122ef565b6108118b611976565b61081b91906122bb565b6108248b611976565b611981565b60405160200161083a9291906123e1565b6040516020818303038152906040529650610a97565b7f2b000000000000000000000000000000000000000000000000000000000000008260008151811061088557610884612135565b5b602001015160f81c60f81b7effffffffffffffffffffffffffffffffffffffffffffffffffffffffffffff191614801561091e57507f2d00000000000000000000000000000000000000000000000000000000000000816000815181106108ef576108ee612135565b5b602001015160f81c60f81b7effffffffffffffffffffffffffffffffffffffffffffffffffffffffffffff1916145b806109f357507f2d000000000000000000000000000000000000000000000000000000000000008260008151811061095957610958612135565b5b602001015160f81c60f81b7effffffffffffffffffffffffffffffffffffffffffffffffffffffffffffff19161480156109f257507f2b00000000000000000000000000000000000000000000000000000000000000816000815181106109c3576109c2612135565b5b602001015160f81c60f81b7effffffffffffffffffffffffffffffffffffffffffffffffffffffffffffff1916145b5b15610a9657610a32876000610a0786611976565b610a1089611976565b610a1a91906122ef565b610a238b611976565b610a2d91906122bb565b611981565b610a7388610a3f86611976565b610a4889611976565b610a5291906122ef565b610a5b8b611976565b610a6591906122bb565b610a6e8b611976565b611981565b604051602001610a8492919061245c565b60405160208183030381529060405296505b5b5b5050505050509250925092565b606080606080606080600080610aba8a6116cf565b8096508197505050610acb896116cf565b8094508195505050610adc83611976565b610ae586611976565b1015610b4957610b46856040518060400160405280600181526020017f3000000000000000000000000000000000000000000000000000000000000000815250610b2e88611976565b610b3787611976565b610b4191906122bb565b611bf0565b94505b610b5285611976565b610b5b84611976565b1015610bbf57610bbc836040518060400160405280600181526020017f3000000000000000000000000000000000000000000000000000000000000000815250610ba486611976565b610bad89611976565b610bb791906122bb565b611bf0565b92505b610bc98a8a610e21565b809250819350505080821415610c225784604051602001610bea91906124e2565b604051602081830303815290604052945082604051602001610c0c91906124e2565b6040516020818303038152906040529250610cb9565b80821115610c735784604051602001610c3b9190612550565b604051602081830303815290604052945082604051602001610c5d91906124e2565b6040516020818303038152906040529250610cb8565b84604051602001610c8491906124e2565b604051602081830303815290604052945082604051602001610ca69190612550565b60405160208183030381529060405292505b5b8585604051602001610ccc9291906123e1565b6040516020818303038152906040528484604051602001610cee9291906123e1565b604051602081830303815290604052975097505050505050509250929050565b600080600090505b8251811015610e1a5760006030848381518110610d3657610d35612135565b5b602001015160f81c60f81b60f81c610d4e919061257f565b60ff161080610d8c575060096030848381518110610d6f57610d6e612135565b5b602001015160f81c60f81b60f81c610d87919061257f565b60ff16115b15610d9b576000915050610e1c565b6001818451610daa91906122bb565b610db491906122bb565b600a610dc091906126e6565b6030848381518110610dd557610dd4612135565b5b602001015160f81c60f81b60f81c610ded919061257f565b60ff16610dfa9190612261565b82610e0591906122ef565b91508080610e1290612398565b915050610d16565b505b919050565b6000806060806060806000806000610e388b6116cf565b8097508198505050610e498a6116cf565b8095508196505050610e5a84611976565b610e6387611976565b1015610ec757610ec4866040518060400160405280600181526020017f3000000000000000000000000000000000000000000000000000000000000000815250610eac89611976565b610eb588611976565b610ebf91906122bb565b611bf0565b95505b610ed086611976565b610ed985611976565b1015610f3d57610f3a846040518060400160405280600181526020017f3000000000000000000000000000000000000000000000000000000000000000815250610f2287611976565b610f2b8a611976565b610f3591906122bb565b611bf0565b93505b610f678787604051602001610f53929190612731565b604051602081830303815290604052611c60565b8094508193505050610f998585604051602001610f85929190612731565b604051602081830303815290604052611c60565b8094508192505050818198509850505050505050509250929050565b600080606060008060008060006060807f2d000000000000000000000000000000000000000000000000000000000000008c600081518110610ffa57610ff9612135565b5b602001015160f81c60f81b7effffffffffffffffffffffffffffffffffffffffffffffffffffffffffffff191614801561109357507f2d000000000000000000000000000000000000000000000000000000000000008b60008151811061106457611063612135565b5b602001015160f81c60f81b7effffffffffffffffffffffffffffffffffffffffffffffffffffffffffffff1916145b156110db576110ac8c60016110a78f611976565b611981565b91506110c28b60016110bd8e611976565b611981565b90506110ce8282610aa5565b80925081935050506110ee565b6110e58c8c610aa5565b80925081935050505b6110f782611d7b565b809750819850505061110881611d7b565b8095508196505050838661111c91906122ef565b98507f30000000000000000000000000000000000000000000000000000000000000006111488a611a77565b60018151811061115b5761115a612135565b5b602001015160f81c60f81b7effffffffffffffffffffffffffffffffffffffffffffffffffffffffffffff1916146111ac576001858861119b91906122ef565b6111a591906122ef565b99506111bb565b84876111b891906122ef565b99505b7f2d000000000000000000000000000000000000000000000000000000000000008c6000815181106111f0576111ef612135565b5b602001015160f81c60f81b7effffffffffffffffffffffffffffffffffffffffffffffffffffffffffffff191614801561128957507f2d000000000000000000000000000000000000000000000000000000000000008b60008151811061125a57611259612135565b5b602001015160f81c60f81b7effffffffffffffffffffffffffffffffffffffffffffffffffffffffffffff1916145b156112db576112978a611a77565b6112b46112a38b611a77565b60026112ae8d611a77565b51611981565b6040516020016112c592919061245c565b6040516020818303038152906040529750611324565b6112e48a611a77565b6113016112f08b611a77565b60026112fb8d611a77565b51611981565b6040516020016113129291906123e1565b60405160208183030381529060405297505b6113496113446113338b611a77565b600261133e8d611a77565b51611981565b611c60565b809450819a505050505050505050509250925092565b6000806060600080600080600080600060608061137c8e8e610aa5565b809250819350505061138e8282610e21565b8095508196505050838514156113e35760009b5060009a506040518060400160405280600381526020017f302e3000000000000000000000000000000000000000000000000000000000008152509950611676565b83851115611532576113f482611d7b565b809950819a50505061140581611d7b565b8097508198505050858861141991906122bb565b9a507f30000000000000000000000000000000000000000000000000000000000000006114458c611a77565b60018151811061145857611457612135565b5b602001015160f81c60f81b7effffffffffffffffffffffffffffffffffffffffffffffffffffffffffffff1916146114a9576001878a61149891906122bb565b6114a291906122bb565b9b506114b8565b86896114b591906122bb565b9b505b6114c18c611a77565b6114de6114cd8d611a77565b60026114d88f611a77565b51611981565b6040516020016114ef9291906123e1565b604051602081830303815290604052995061152561152061150f8d611a77565b600261151a8f611a77565b51611981565b611c60565b809450819c505050611675565b61153b82611d7b565b809950819a50505061154c81611d7b565b8097508198505050878661156091906122bb565b9a507f300000000000000000000000000000000000000000000000000000000000000061158c8c611a77565b60018151811061159f5761159e612135565b5b602001015160f81c60f81b7effffffffffffffffffffffffffffffffffffffffffffffffffffffffffffff1916146115f057600189886115df91906122bb565b6115e991906122bb565b9b506115ff565b88876115fc91906122bb565b9b505b6116088c611a77565b6116256116148d611a77565b600261161f8f611a77565b51611981565b60405160200161163692919061245c565b604051602081830303815290604052995061166c6116676116568d611a77565b60026116618f611a77565b51611981565b611c60565b809450819c5050505b5b5050505050505050509250925092565b6000606080611694846116cf565b80925081935050506116c682826040516020016116b2929190612731565b604051602081830303815290604052610d0e565b92505050919050565b606080600083519050600080600090505b828110156117a5576040518060400160405280600181526020017f2e0000000000000000000000000000000000000000000000000000000000000081525060405160200161172e919061279c565b6040516020818303038152906040528051906020012086828151811061175757611756612135565b5b602001015160f81c60f81b6040516020016117729190612800565b604051602081830303815290604052805190602001201415611792578091505b808061179d90612398565b9150506116e0565b5060008167ffffffffffffffff8111156117c2576117c1611def565b5b6040519080825280601f01601f1916602001820160405280156117f45781602001600182028036833780820191505090505b50905060006001838561180791906122bb565b61181191906122bb565b67ffffffffffffffff81111561182a57611829611def565b5b6040519080825280601f01601f19166020018201604052801561185c5781602001600182028036833780820191505090505b50905060005b8481101561196657838110156118d35787818151811061188557611884612135565b5b602001015160f81c60f81b8382815181106118a3576118a2612135565b5b60200101907effffffffffffffffffffffffffffffffffffffffffffffffffffffffffffff1916908160001a9053505b83811115611953578781815181106118ee576118ed612135565b5b602001015160f81c60f81b826001868461190891906122bb565b61191291906122bb565b8151811061192357611922612135565b5b60200101907effffffffffffffffffffffffffffffffffffffffffffffffffffffffffffff1916908160001a9053505b808061195e90612398565b915050611862565b5081819550955050505050915091565b600081519050919050565b60606000838361199191906122bb565b67ffffffffffffffff8111156119aa576119a9611def565b5b6040519080825280601f01601f1916602001820160405280156119dc5781602001600182028036833780820191505090505b50905060008490505b83811015611a6b57858181518110611a00576119ff612135565b5b602001015160f81c60f81b828683611a1891906122bb565b81518110611a2957611a28612135565b5b60200101907effffffffffffffffffffffffffffffffffffffffffffffffffffffffffffff1916908160001a9053508080611a6390612398565b9150506119e5565b50809150509392505050565b60606000821415611abf576040518060400160405280600181526020017f30000000000000000000000000000000000000000000000000000000000000008152509050611bb9565b60008290506000611acf82611bbe565b905060008167ffffffffffffffff811115611aed57611aec611def565b5b6040519080825280601f01601f191660200182016040528015611b1f5781602001600182028036833780820191505090505b50905060008290508593505b60008414611bb157600a84611b40919061284a565b6030611b4c91906122ef565b60f81b8282611b5a9061287b565b92508281518110611b6e57611b6d612135565b5b60200101907effffffffffffffffffffffffffffffffffffffffffffffffffffffffffffff1916908160001a905350600a84611baa91906128a5565b9350611b2b565b819450505050505b919050565b60005b60008214611beb578080611bd490612398565b915050600a82611be491906128a5565b9150611bc1565b919050565b606060005b82811015611c34578184604051602001611c10929190612731565b60405160208183030381529060405291508080611c2c90612398565b915050611bf5565b508381604051602001611c48929190612731565b60405160208183030381529060405290509392505050565b60008060005b8351811015611d6d5760006030858381518110611c8657611c85612135565b5b602001015160f81c60f81b60f81c611c9e919061257f565b60ff161080611cdc575060096030858381518110611cbf57611cbe612135565b5b602001015160f81c60f81b60f81c611cd7919061257f565b60ff16115b15611cee576000809250925050611d76565b6001818551611cfd91906122bb565b611d0791906122bb565b600a611d1391906126e6565b6030858381518110611d2857611d27612135565b5b602001015160f81c60f81b60f81c611d40919061257f565b60ff16611d4d9190612261565b83611d5891906122ef565b92508080611d6590612398565b915050611c66565b50816001915091505b915091565b600080600080606080611d8d876116cf565b8092508193505050611d9e82611c60565b8095508197505050611daf81611c60565b809450819650505050505050915091565b6000604051905090565b600080fd5b600080fd5b600080fd5b600080fd5b6000601f19601f8301169050919050565b7f4e487b7100000000000000000000000000000000000000000000000000000000600052604160045260246000fd5b611e2782611dde565b810181811067ffffffffffffffff82111715611e4657611e45611def565b5b80604052505050565b6000611e59611dc0565b9050611e658282611e1e565b919050565b600067ffffffffffffffff821115611e8557611e84611def565b5b611e8e82611dde565b9050602081019050919050565b82818337600083830152505050565b6000611ebd611eb884611e6a565b611e4f565b905082815260208101848484011115611ed957611ed8611dd9565b5b611ee4848285611e9b565b509392505050565b600082601f830112611f0157611f00611dd4565b5b8135611f11848260208601611eaa565b91505092915050565b60008060408385031215611f3157611f30611dca565b5b600083013567ffffffffffffffff811115611f4f57611f4e611dcf565b5b611f5b85828601611eec565b925050602083013567ffffffffffffffff811115611f7c57611f7b611dcf565b5b611f8885828601611eec565b9150509250929050565b6000819050919050565b611fa581611f92565b82525050565b600081519050919050565b600082825260208201905092915050565b60005b83811015611fe5578082015181840152602081019050611fca565b83811115611ff4576000848401525b50505050565b600061200582611fab565b61200f8185611fb6565b935061201f818560208601611fc7565b61202881611dde565b840191505092915050565b60006060820190506120486000830186611f9c565b6120556020830185611f9c565b81810360408301526120678184611ffa565b9050949350505050565b6000604082019050818103600083015261208b8185611ffa565b9050818103602083015261209f8184611ffa565b90509392505050565b6000602082840312156120be576120bd611dca565b5b600082013567ffffffffffffffff8111156120dc576120db611dcf565b5b6120e884828501611eec565b91505092915050565b60006020820190506121066000830184611f9c565b92915050565b60006040820190506121216000830185611f9c565b61212e6020830184611f9c565b9392505050565b7f4e487b7100000000000000000000000000000000000000000000000000000000600052603260045260246000fd5b600081905092915050565b7f3000000000000000000000000000000000000000000000000000000000000000600082015250565b60006121a5600183612164565b91506121b08261216f565b600182019050919050565b7f2e00000000000000000000000000000000000000000000000000000000000000600082015250565b60006121f1600183612164565b91506121fc826121bb565b600182019050919050565b600061221282612198565b915061221d826121e4565b915061222882612198565b9150819050919050565b7f4e487b7100000000000000000000000000000000000000000000000000000000600052601160045260246000fd5b600061226c82611f92565b915061227783611f92565b9250817fffffffffffffffffffffffffffffffffffffffffffffffffffffffffffffffff04831182151516156122b0576122af612232565b5b828202905092915050565b60006122c682611f92565b91506122d183611f92565b9250828210156122e4576122e3612232565b5b828203905092915050565b60006122fa82611f92565b915061230583611f92565b9250827fffffffffffffffffffffffffffffffffffffffffffffffffffffffffffffffff0382111561233a57612339612232565b5b828201905092915050565b600061235082611fab565b61235a8185612164565b935061236a818560208601611fc7565b80840191505092915050565b600061238182612198565b915061238d8284612345565b915081905092915050565b60006123a382611f92565b91507fffffffffffffffffffffffffffffffffffffffffffffffffffffffffffffffff8214156123d6576123d5612232565b5b600182019050919050565b60006123ed8285612345565b91506123f8826121e4565b91506124048284612345565b91508190509392505050565b7f2d00000000000000000000000000000000000000000000000000000000000000600082015250565b6000612446600183612164565b915061245182612410565b600182019050919050565b600061246782612439565b91506124738285612345565b915061247e826121e4565b915061248a8284612345565b91508190509392505050565b7f3130000000000000000000000000000000000000000000000000000000000000600082015250565b60006124cc600283612164565b91506124d782612496565b600282019050919050565b60006124ed826124bf565b91506124f98284612345565b915081905092915050565b7f3330000000000000000000000000000000000000000000000000000000000000600082015250565b600061253a600283612164565b915061254582612504565b600282019050919050565b600061255b8261252d565b91506125678284612345565b915081905092915050565b600060ff82169050919050565b600061258a82612572565b915061259583612572565b9250828210156125a8576125a7612232565b5b828203905092915050565b60008160011c9050919050565b6000808291508390505b600185111561260a578086048111156125e6576125e5612232565b5b60018516156125f55780820291505b8081029050612603856125b3565b94506125ca565b94509492505050565b60008261262357600190506126df565b8161263157600090506126df565b8160018114612647576002811461265157612680565b60019150506126df565b60ff84111561266357612662612232565b5b8360020a91508482111561267a57612679612232565b5b506126df565b5060208310610133831016604e8410600b84101617156126b55782820a9050838111156126b0576126af612232565b5b6126df565b6126c284848460016125c0565b925090508184048111156126d9576126d8612232565b5b81810290505b9392505050565b60006126f182611f92565b91506126fc83611f92565b92506127297fffffffffffffffffffffffffffffffffffffffffffffffffffffffffffffffff8484612613565b905092915050565b600061273d8285612345565b91506127498284612345565b91508190509392505050565b600081519050919050565b600081905092915050565b600061277682612755565b6127808185612760565b9350612790818560208601611fc7565b80840191505092915050565b60006127a8828461276b565b915081905092915050565b60007fff0000000000000000000000000000000000000000000000000000000000000082169050919050565b6000819050919050565b6127fa6127f5826127b3565b6127df565b82525050565b600061280c82846127e9565b60018201915081905092915050565b7f4e487b7100000000000000000000000000000000000000000000000000000000600052601260045260246000fd5b600061285582611f92565b915061286083611f92565b9250826128705761286f61281b565b5b828206905092915050565b600061288682611f92565b9150600082141561289a57612899612232565b5b600182039050919050565b60006128b082611f92565b91506128bb83611f92565b9250826128cb576128ca61281b565b5b82820490509291505056fea2646970667358221220b668a8a6455ba2ebd9835db5b8be63cc802bc29be6a9046876d20e7c9397f94664736f6c63430008090033",
  "immutableReferences": {},
  "source": "// SPDX-License-Identifier: MIT\npragma solidity 0.8.9;\n\ncontract MathLibrary {\n    //=== add two floating points. Input and output are all unsigned integers\n    function addFloat(string memory _str1, string memory _str2)\n        public\n        pure\n        returns (\n            uint256 wp,\n            uint256 dp,\n            string memory _str\n        )\n    {\n        uint256 wp1;\n        uint256 dp1;\n        uint256 wp2;\n        uint256 dp2;\n        bool isUint;\n\n        string memory str1;\n        string memory str2;\n\n        if (bytes(_str1)[0] == \"-\" && bytes(_str2)[0] == \"-\") {\n            str1 = substring(_str1, 1, lengthOfString(_str1));\n            str2 = substring(_str2, 1, lengthOfString(_str2));\n\n            (str1, str2) = normalizeNumbers(str1, str2);\n        } else {\n            (str1, str2) = normalizeNumbers(_str1, _str2);\n        }\n\n        (wp1, dp1) = splitDecimalStringToIntegers(str1);\n        (wp2, dp2) = splitDecimalStringToIntegers(str2);\n\n        dp = dp1 + dp2;\n\n        if (bytes(uintToString(dp))[1] != \"0\") {\n            wp = wp1 + wp2 + 1;\n        } else {\n            wp = wp1 + wp2;\n        }\n\n        if (bytes(_str1)[0] == \"-\" && bytes(_str2)[0] == \"-\") {\n            _str = string(\n                abi.encodePacked(\n                    \"-\",\n                    uintToString(wp),\n                    \".\",\n                    substring(\n                        string(bytes(uintToString(dp))),\n                        2,\n                        bytes(uintToString(dp)).length\n                    )\n                )\n            );\n        } else {\n            _str = string(\n                abi.encodePacked(\n                    uintToString(wp),\n                    \".\",\n                    substring(\n                        string(bytes(uintToString(dp))),\n                        2,\n                        bytes(uintToString(dp)).length\n                    )\n                )\n            );\n        }\n\n        (dp, isUint) = strToUint(\n            substring(\n                string(bytes(uintToString(dp))),\n                2,\n                bytes(uintToString(dp)).length\n            )\n        );\n    }\n\n    //=== substraction with two floating points. Input and output are all unsigned integers\n    function subFloat(string memory _str1, string memory _str2)\n        public\n        pure\n        returns (\n            uint256 wp,\n            uint256 dp,\n            string memory _str\n        )\n    {\n        uint256 wp1;\n        uint256 dp1;\n        uint256 wp2;\n        uint256 dp2;\n        uint256 num1;\n        uint256 num2;\n        bool isUint;\n\n        string memory str1;\n        string memory str2;\n\n        (str1, str2) = normalizeNumbers(_str1, _str2);\n\n        (num1, num2) = removeDotAndNormalize(str1, str2);\n\n        if (num1 == num2) {\n            wp = 0;\n            dp = 0;\n            _str = \"0.0\";\n        } else if (num1 > num2) {\n            (wp1, dp1) = splitDecimalStringToIntegers(str1);\n            (wp2, dp2) = splitDecimalStringToIntegers(str2);\n\n            dp = dp1 - dp2;\n\n            if (bytes(uintToString(dp))[1] != \"0\") {\n                wp = wp1 - wp2 - 1;\n            } else {\n                wp = wp1 - wp2;\n            }\n\n            _str = string(\n                abi.encodePacked(\n                    uintToString(wp),\n                    \".\",\n                    substring(\n                        string(bytes(uintToString(dp))),\n                        2,\n                        bytes(uintToString(dp)).length\n                    )\n                )\n            );\n            (dp, isUint) = strToUint(\n                substring(\n                    string(bytes(uintToString(dp))),\n                    2,\n                    bytes(uintToString(dp)).length\n                )\n            );\n        } else {\n            (wp1, dp1) = splitDecimalStringToIntegers(str1);\n            (wp2, dp2) = splitDecimalStringToIntegers(str2);\n\n            dp = dp2 - dp1;\n\n            if (bytes(uintToString(dp))[1] != \"0\") {\n                wp = wp2 - wp1 - 1;\n            } else {\n                wp = wp2 - wp1;\n            }\n\n            _str = string(\n                abi.encodePacked(\n                    \"-\",\n                    uintToString(wp),\n                    \".\",\n                    substring(\n                        string(bytes(uintToString(dp))),\n                        2,\n                        bytes(uintToString(dp)).length\n                    )\n                )\n            );\n            (dp, isUint) = strToUint(\n                substring(\n                    string(bytes(uintToString(dp))),\n                    2,\n                    bytes(uintToString(dp)).length\n                )\n            );\n        }\n    }\n\n    //=== Multiplication of two floating points. Input and output are all unsigned integers\n    function mulFloat(string memory _str1, string memory _str2)\n        public\n        pure\n        returns (\n            uint256 wp,\n            uint256 dp,\n            string memory _str\n        )\n    {\n        string memory wpStr1;\n        string memory dpStr1;\n        string memory wpStr2;\n        string memory dpStr2;\n        string memory sign1;\n        string memory sign2;\n\n        (wpStr1, dpStr1) = splitstring(_str1);\n        (wpStr2, dpStr2) = splitstring(_str2);\n\n        if (bytes(wpStr1)[0] == \"-\") {\n            wpStr1 = substring(wpStr1, 1, lengthOfString(wpStr1));\n            sign1 = \"-\";\n            _str1 = substring(_str1, 1, lengthOfString(_str1));\n        } else {\n            sign1 = \"+\";\n        }\n\n        if (bytes(wpStr2)[0] == \"-\") {\n            wpStr2 = substring(wpStr2, 1, lengthOfString(wpStr2));\n            sign2 = \"-\";\n            _str2 = substring(_str2, 1, lengthOfString(_str2));\n        } else {\n            sign2 = \"+\";\n        }\n\n        if (\n            (strToUintV2(wpStr1) == 0 && strToUintV2(dpStr1) == 0) ||\n            (strToUintV2(wpStr2) == 0 && strToUintV2(dpStr2) == 0)\n        ) {\n            wp = 0;\n            dp = 0;\n            _str = string(abi.encodePacked(\"0\", \".\", \"0\"));\n        } else {\n            wp = removeDot(_str1); // if _str1 = \"3.14\" => wp = 314 and _str1 = 0.01 => wp = 1\n            dp = removeDot(_str2); // if _str2 = \"3.14\" => dp = 314 and _str2 = 0.10 => dp = 10\n\n            _str = uintToString(wp * dp);\n\n            wp = (lengthOfString(_str1) - 1) - lengthOfUint(wp); // returns the number of zeros lost in wp => _str1\n            dp = (lengthOfString(_str2) - 1) - lengthOfUint(dp); // returns the number of zeros lost in dp => _str2\n\n            if ((wp + dp) != 0) {\n                for (uint256 i = 0; i < (wp + dp); i++) {\n                    _str = string(abi.encodePacked(\"0\", _str));\n                }\n            }\n\n            wp = strToUintV2(\n                substring(\n                    _str,\n                    0,\n                    lengthOfString(_str) -\n                        (lengthOfString(dpStr1) + lengthOfString(dpStr2))\n                )\n            );\n            dp = strToUintV2(\n                substring(\n                    _str,\n                    lengthOfString(_str) -\n                        (lengthOfString(dpStr1) + lengthOfString(dpStr2)),\n                    lengthOfString(_str)\n                )\n            );\n\n            if (\n                (bytes(sign1)[0] == \"+\" && bytes(sign2)[0] == \"+\") ||\n                (bytes(sign1)[0] == \"-\" && bytes(sign2)[0] == \"-\")\n            ) {\n                //_str = string(abi.encodePacked(uintToString(wp), \".\", uintToString(dp)));\n                _str = string(\n                    abi.encodePacked(\n                        substring(\n                            _str,\n                            0,\n                            lengthOfString(_str) -\n                                (lengthOfString(dpStr1) +\n                                    lengthOfString(dpStr2))\n                        ),\n                        \".\",\n                        substring(\n                            _str,\n                            lengthOfString(_str) -\n                                (lengthOfString(dpStr1) +\n                                    lengthOfString(dpStr2)),\n                            lengthOfString(_str)\n                        )\n                    )\n                );\n            } else if (\n                (bytes(sign1)[0] == \"+\" && bytes(sign2)[0] == \"-\") ||\n                (bytes(sign1)[0] == \"-\" && bytes(sign2)[0] == \"+\")\n            ) {\n                //_str = string(abi.encodePacked(\"-\", uintToString(wp), \".\", uintToString(dp)));\n                _str = string(\n                    abi.encodePacked(\n                        \"-\",\n                        substring(\n                            _str,\n                            0,\n                            lengthOfString(_str) -\n                                (lengthOfString(dpStr1) +\n                                    lengthOfString(dpStr2))\n                        ),\n                        \".\",\n                        substring(\n                            _str,\n                            lengthOfString(_str) -\n                                (lengthOfString(dpStr1) +\n                                    lengthOfString(dpStr2)),\n                            lengthOfString(_str)\n                        )\n                    )\n                );\n            }\n        }\n    }\n\n    //=== Find the length of an unsigned integer\n    function lengthOfUint(uint256 _num) private pure returns (uint256 length) {\n        while (_num != 0) {\n            length++;\n            _num /= 10;\n        }\n    }\n\n    //=== Find the number of bytes in a string\n    function lengthOfString(string memory _str) private pure returns (uint256) {\n        return bytes(_str).length;\n    }\n\n    //=== Return the maximum number\n    function max(uint256 _num1, uint256 _num2)\n        private\n        pure\n        returns (uint256 maxNumber)\n    {\n        _num1 >= _num2 ? maxNumber = _num1 : maxNumber = _num2;\n    }\n\n    //=== Separates decimal number (string) to whole number (string) and decimal parts (string)\n    function splitstring(string memory _str)\n        private\n        pure\n        returns (string memory, string memory)\n    {\n        uint256 n = bytes(_str).length;\n\n        uint256 limit;\n\n        for (uint256 i = 0; i < n; i++) {\n            if (\n                keccak256(abi.encodePacked(bytes(_str)[i])) ==\n                keccak256(abi.encodePacked(bytes(\".\")))\n            ) {\n                limit = i;\n            }\n        }\n\n        bytes memory wholeNumberPart = new bytes(limit);\n        bytes memory decimalPart = new bytes(n - limit - 1);\n\n        for (uint256 i = 0; i < n; i++) {\n            if (i < limit) {\n                wholeNumberPart[i] = bytes(_str)[i];\n            }\n\n            if (i > limit) {\n                decimalPart[i - limit - 1] = bytes(_str)[i];\n            }\n        }\n\n        return (string(wholeNumberPart), string(decimalPart));\n    }\n\n    //=== extract part of string starting at _startIndex and ending at _endIndex\n    function substring(\n        string memory _str,\n        uint256 _startIndex,\n        uint256 _endIndex\n    ) private pure returns (string memory) {\n        bytes memory result = new bytes(_endIndex - _startIndex);\n\n        for (uint256 i = _startIndex; i < _endIndex; i++) {\n            result[i - _startIndex] = bytes(_str)[i];\n        }\n\n        return string(result);\n    }\n\n    //=== Convert a string to a uint with error handling\n    function strToUint(string memory _str)\n        private\n        pure\n        returns (uint256 res, bool err)\n    {\n        for (uint256 i = 0; i < bytes(_str).length; i++) {\n            if (\n                (uint8(bytes(_str)[i]) - 48) < 0 ||\n                (uint8(bytes(_str)[i]) - 48) > 9\n            ) {\n                return (0, false);\n            }\n            res +=\n                (uint8(bytes(_str)[i]) - 48) *\n                10**(bytes(_str).length - i - 1);\n        }\n\n        return (res, true);\n    }\n\n    //=== Convert a string to a uint without error handling\n    function strToUintV2(string memory _str) public pure returns (uint256 res) {\n        for (uint256 i = 0; i < bytes(_str).length; i++) {\n            if (\n                (uint8(bytes(_str)[i]) - 48) < 0 ||\n                (uint8(bytes(_str)[i]) - 48) > 9\n            ) {\n                return 0;\n            }\n            res +=\n                (uint8(bytes(_str)[i]) - 48) *\n                10**(bytes(_str).length - i - 1);\n        }\n\n        return res;\n    }\n\n    function splitDecimalStringToIntegers(string memory _str)\n        private\n        pure\n        returns (uint256 wp, uint256 dp)\n    {\n        bool wpBool;\n        bool dpBool;\n        string memory wholeNumberPart;\n        string memory decimalPart;\n\n        (wholeNumberPart, decimalPart) = splitstring(_str);\n\n        (wp, wpBool) = strToUint(wholeNumberPart);\n        (dp, dpBool) = strToUint(decimalPart);\n\n        return (wp, dp);\n    }\n\n    //=== Separates decimal number (string) to whole number (uint) and decimal (uint) parts\n    function uintToString(uint256 _i) private pure returns (string memory str) {\n        if (_i == 0) return \"0\";\n\n        uint256 j = _i;\n        uint256 length;\n\n        length = lengthOfUint(j);\n\n        bytes memory bstr = new bytes(length);\n        uint256 k = length;\n        j = _i;\n\n        while (j != 0) {\n            bstr[--k] = bytes1(uint8(48 + (j % 10)));\n            j /= 10;\n        }\n\n        str = string(bstr);\n\n        return str;\n    }\n\n    // Add 10 and 30 at the bigining of the decimal parts and add zero at the end to have same number of digits for the two Input\n    function normalizeNumbers(string memory _str1, string memory _str2)\n        public\n        pure\n        returns (string memory, string memory)\n    {\n        string memory wpStr1;\n        string memory dpStr1;\n        string memory wpStr2;\n        string memory dpStr2;\n\n        uint256 num1;\n        uint256 num2;\n        //bool isUint;\n\n        (wpStr1, dpStr1) = splitstring(_str1);\n        (wpStr2, dpStr2) = splitstring(_str2);\n\n        if (lengthOfString(dpStr1) < lengthOfString(dpStr2)) {\n            dpStr1 = paddRight(\n                dpStr1,\n                \"0\",\n                lengthOfString(dpStr2) - lengthOfString(dpStr1)\n            );\n        }\n\n        if (lengthOfString(dpStr2) < lengthOfString(dpStr1)) {\n            dpStr2 = paddRight(\n                dpStr2,\n                \"0\",\n                lengthOfString(dpStr1) - lengthOfString(dpStr2)\n            );\n        }\n\n        (num1, num2) = removeDotAndNormalize(_str1, _str2);\n\n        if (num1 == num2) {\n            dpStr1 = string(abi.encodePacked(\"10\", dpStr1));\n            dpStr2 = string(abi.encodePacked(\"10\", dpStr2));\n        } else if (num1 > num2) {\n            dpStr1 = string(abi.encodePacked(\"30\", dpStr1));\n            dpStr2 = string(abi.encodePacked(\"10\", dpStr2));\n        } else {\n            dpStr1 = string(abi.encodePacked(\"10\", dpStr1));\n            dpStr2 = string(abi.encodePacked(\"30\", dpStr2));\n        }\n\n        return (\n            string(abi.encodePacked(wpStr1, \".\", dpStr1)),\n            string(abi.encodePacked(wpStr2, \".\", dpStr2))\n        );\n    }\n\n    //=== Put numbers to equal number of digits\n    function equalDigitsRight(uint256 _num1, uint256 _num2)\n        private\n        pure\n        returns (uint256 num1, uint256 num2)\n    {\n        if (lengthOfUint(_num1) == lengthOfUint(_num2)) {\n            num1 = _num1;\n            num2 = _num2;\n        } else {\n            if (lengthOfUint(_num1) > lengthOfUint(_num2)) {\n                string memory str2 = uintToString(_num2);\n                bool isUint;\n\n                str2 = paddRight(\n                    str2,\n                    \"0\",\n                    lengthOfUint(_num1) - lengthOfUint(_num2)\n                );\n\n                num1 = _num1;\n                (num2, isUint) = strToUint(str2);\n            } else {\n                string memory str1 = uintToString(_num1);\n                bool isUint;\n\n                str1 = paddRight(\n                    str1,\n                    \"0\",\n                    lengthOfUint(_num2) - lengthOfUint(_num1)\n                );\n\n                (num1, isUint) = strToUint(str1);\n                num2 = _num2;\n            }\n        }\n    }\n\n    //=== Put numbers to equal number of digits\n    function equalDigitsLeft(uint256 _num1, uint256 _num2)\n        private\n        pure\n        returns (uint256 num1, uint256 num2)\n    {\n        if (lengthOfUint(_num1) == lengthOfUint(_num2)) {\n            num1 = _num1;\n            num2 = _num2;\n        } else {\n            if (lengthOfUint(_num1) > lengthOfUint(_num2)) {\n                string memory str2 = uintToString(_num2);\n                bool isUint;\n\n                str2 = paddLeft(\n                    str2,\n                    \"0\",\n                    lengthOfUint(_num1) - lengthOfUint(_num2)\n                );\n\n                num1 = _num1;\n                (num2, isUint) = strToUint(str2);\n            } else {\n                string memory str1 = uintToString(_num1);\n                bool isUint;\n\n                str1 = paddLeft(\n                    str1,\n                    \"0\",\n                    lengthOfUint(_num2) - lengthOfUint(_num1)\n                );\n\n                (num1, isUint) = strToUint(str1);\n                num2 = _num2;\n            }\n        }\n    }\n\n    //=== Removing the dot \".\" of a floating point number. Ex: \"12.45 => 1245\"\n    function removeDot(string memory _str) public pure returns (uint256) {\n        string memory wp;\n        string memory dp;\n\n        (wp, dp) = splitstring(_str);\n\n        return strToUintV2(string(abi.encodePacked(wp, dp)));\n    }\n\n    //=== Removing the dot \".\" of two floating point numbers and normalizing. Ex: \"(3.14, 14.3) => (314, 1430)\"\n    function removeDotAndNormalize(string memory _str1, string memory _str2)\n        public\n        pure\n        returns (uint256, uint256)\n    {\n        string memory wp1;\n        string memory dp1;\n        string memory wp2;\n        string memory dp2;\n        bool isUint;\n        uint256 num1;\n        uint256 num2;\n\n        (wp1, dp1) = splitstring(_str1);\n        (wp2, dp2) = splitstring(_str2);\n\n        if (lengthOfString(dp1) < lengthOfString(dp2)) {\n            dp1 = paddRight(\n                dp1,\n                \"0\",\n                lengthOfString(dp2) - lengthOfString(dp1)\n            );\n        }\n\n        if (lengthOfString(dp2) < lengthOfString(dp1)) {\n            dp2 = paddRight(\n                dp2,\n                \"0\",\n                lengthOfString(dp1) - lengthOfString(dp2)\n            );\n        }\n\n        (num1, isUint) = strToUint(string(abi.encodePacked(wp1, dp1)));\n        (num2, isUint) = strToUint(string(abi.encodePacked(wp2, dp2)));\n\n        return (num1, num2);\n    }\n\n    //=== Padding Right\n    function paddRight(\n        string memory _str,\n        string memory _padStr,\n        uint256 _padSize\n    ) private pure returns (string memory str) {\n        for (uint256 i = 0; i < _padSize; i++) {\n            str = string(abi.encodePacked(str, _padStr));\n        }\n\n        return string(abi.encodePacked(_str, str));\n    }\n\n    //=== Padding Left\n    function paddLeft(\n        string memory _str,\n        string memory _padStr,\n        uint256 _padSize\n    ) private pure returns (string memory str) {\n        for (uint256 i = 0; i < _padSize; i++) {\n            str = string(abi.encodePacked(str, _padStr));\n        }\n\n        return string(abi.encodePacked(str, _str));\n    }\n}\n",
  "sourcePath": "/Users/samuel/Documents/Projet/Pojet_Dev/Solity_Math/contracts/MathLibrary.sol",
  "compiler": {
    "name": "solc",
    "version": "0.8.9+commit.e5eed63a.Emscripten.clang"
  },
  "schemaVersion": "3.3.4",
  "updatedAt": "2021-10-23T18:08:23.454Z",
  "networkType": "ethereum",
  "devdoc": {
    "kind": "dev",
    "methods": {},
    "version": 1
  },
  "userdoc": {
    "kind": "user",
    "methods": {},
    "version": 1
  }
}