{
  "contractName": "MathLibrary",
  "abi": [
    {
      "inputs": [
        {
          "internalType": "string",
          "name": "_str1",
          "type": "string"
        },
        {
          "internalType": "string",
          "name": "_str2",
          "type": "string"
        }
      ],
      "name": "addFloat",
      "outputs": [
        {
          "internalType": "uint256",
          "name": "wp",
          "type": "uint256"
        },
        {
          "internalType": "uint256",
          "name": "dp",
          "type": "uint256"
        },
        {
          "internalType": "string",
          "name": "_str",
          "type": "string"
        }
      ],
      "stateMutability": "pure",
      "type": "function",
      "constant": true
    },
    {
      "inputs": [
        {
          "internalType": "string",
          "name": "_str1",
          "type": "string"
        },
        {
          "internalType": "string",
          "name": "_str2",
          "type": "string"
        }
      ],
      "name": "subFloat",
      "outputs": [
        {
          "internalType": "uint256",
          "name": "wp",
          "type": "uint256"
        },
        {
          "internalType": "uint256",
          "name": "dp",
          "type": "uint256"
        },
        {
          "internalType": "string",
          "name": "_str",
          "type": "string"
        }
      ],
      "stateMutability": "pure",
      "type": "function",
      "constant": true
    },
    {
      "inputs": [
        {
          "internalType": "string",
          "name": "_str1",
          "type": "string"
        },
        {
          "internalType": "string",
          "name": "_str2",
          "type": "string"
        }
      ],
      "name": "normalizeNumbers",
      "outputs": [
        {
          "internalType": "string",
          "name": "",
          "type": "string"
        },
        {
          "internalType": "string",
          "name": "",
          "type": "string"
        }
      ],
      "stateMutability": "pure",
      "type": "function",
      "constant": true
    },
    {
      "inputs": [
        {
          "internalType": "string",
          "name": "_str",
          "type": "string"
        }
      ],
      "name": "removeDot",
      "outputs": [
        {
          "internalType": "uint256",
          "name": "",
          "type": "uint256"
        },
        {
          "internalType": "bool",
          "name": "",
          "type": "bool"
        }
      ],
      "stateMutability": "pure",
      "type": "function",
      "constant": true
    }
  ],
  "bytecode": "0x608060405234801561001057600080fd5b50611a38806100206000396000f3fe608060405234801561001057600080fd5b506004361061004c5760003560e01c8063384f6cdb14610051578063c811001f14610082578063d82ece86146100b4578063ee5bf7c9146100e6575b600080fd5b61006b600480360381019061006691906110df565b610117565b6040516100799291906111df565b60405180910390f35b61009c600480360381019061009791906110df565b610393565b6040516100ab9392919061122f565b60405180910390f35b6100ce60048036038101906100c991906110df565b610505565b6040516100dd9392919061122f565b60405180910390f35b61010060048036038101906100fb919061126d565b61083c565b60405161010e9291906112d1565b60405180910390f35b606080606080606080600080600061012e8b610888565b809750819850505061013f8a610888565b809550819650505061015084610b35565b61015987610b35565b10156101bd576101ba866040518060400160405280600181526020017f30000000000000000000000000000000000000000000000000000000000000008152506101a289610b35565b6101ab88610b35565b6101b59190611329565b610b40565b95505b6101c686610b35565b6101cf85610b35565b101561023357610230846040518060400160405280600181526020017f300000000000000000000000000000000000000000000000000000000000000081525061021887610b35565b6102218a610b35565b61022b9190611329565b610b40565b93505b61023c8b61083c565b809250819450505061024d8a61083c565b8092508193505050818314156102a6578560405160200161026e91906113e5565b60405160208183030381529060405295508360405160200161029091906113e5565b604051602081830303815290604052935061033d565b818311156102f757856040516020016102bf9190611453565b6040516020818303038152906040529550836040516020016102e191906113e5565b604051602081830303815290604052935061033c565b8560405160200161030891906113e5565b60405160208183030381529060405295508360405160200161032a9190611453565b60405160208183030381529060405293505b5b86866040516020016103509291906114c1565b60405160208183030381529060405285856040516020016103729291906114c1565b60405160208183030381529060405298509850505050505050509250929050565b600080606060008060008060006060806103ad8c8c610117565b80925081935050506103be82610bb0565b80975081985050506103cf81610bb0565b809550819650505083866103e391906114f0565b98507f300000000000000000000000000000000000000000000000000000000000000061040f8a610bf5565b60018151811061042257610421611546565b5b602001015160f81c60f81b7effffffffffffffffffffffffffffffffffffffffffffffffffffffffffffff191614610473576001858861046291906114f0565b61046c91906114f0565b9950610482565b848761047f91906114f0565b99505b61048b8a610bf5565b6104a86104978b610bf5565b60026104a28d610bf5565b51610d3c565b6040516020016104b99291906114c1565b60405160208183030381529060405297506104ef6104ea6104d98b610bf5565b60026104e48d610bf5565b51610d3c565b610e38565b809450819a505050505050505050509250925092565b600080606060008060008060008060006060806105228e8e610117565b80925081935050506105338261083c565b80945081965050506105448161083c565b8094508195505050838514156105995760009b5060009a506040518060400160405280600381526020017f302e300000000000000000000000000000000000000000000000000000000000815250995061082c565b838511156106e8576105aa82610bb0565b809950819a5050506105bb81610bb0565b809750819850505085886105cf9190611329565b9a507f30000000000000000000000000000000000000000000000000000000000000006105fb8c610bf5565b60018151811061060e5761060d611546565b5b602001015160f81c60f81b7effffffffffffffffffffffffffffffffffffffffffffffffffffffffffffff19161461065f576001878a61064e9190611329565b6106589190611329565b9b5061066e565b868961066b9190611329565b9b505b6106778c610bf5565b6106946106838d610bf5565b600261068e8f610bf5565b51610d3c565b6040516020016106a59291906114c1565b60405160208183030381529060405299506106db6106d66106c58d610bf5565b60026106d08f610bf5565b51610d3c565b610e38565b809450819c50505061082b565b6106f182610bb0565b809950819a50505061070281610bb0565b809750819850505087866107169190611329565b9a507f30000000000000000000000000000000000000000000000000000000000000006107428c610bf5565b60018151811061075557610754611546565b5b602001015160f81c60f81b7effffffffffffffffffffffffffffffffffffffffffffffffffffffffffffff1916146107a657600189886107959190611329565b61079f9190611329565b9b506107b5565b88876107b29190611329565b9b505b6107be8c610bf5565b6107db6107ca8d610bf5565b60026107d58f610bf5565b51610d3c565b6040516020016107ec9291906115c1565b604051602081830303815290604052995061082261081d61080c8d610bf5565b60026108178f610bf5565b51610d3c565b610e38565b809450819c5050505b5b5050505050505050509250925092565b60008060608061084b85610888565b809250819350505061087d82826040516020016108699291906115fb565b604051602081830303815290604052610e38565b935093505050915091565b6060806000839050600081519050600080600090505b82811015610963576040518060400160405280600181526020017f2e000000000000000000000000000000000000000000000000000000000000008152506040516020016108ec9190611666565b6040516020818303038152906040528051906020012084828151811061091557610914611546565b5b602001015160f81c60f81b60405160200161093091906116ca565b604051602081830303815290604052805190602001201415610950578091505b808061095b906116e5565b91505061089e565b5060008167ffffffffffffffff8111156109805761097f610fb4565b5b6040519080825280601f01601f1916602001820160405280156109b25781602001600182028036833780820191505090505b5090506000600183856109c59190611329565b6109cf9190611329565b67ffffffffffffffff8111156109e8576109e7610fb4565b5b6040519080825280601f01601f191660200182016040528015610a1a5781602001600182028036833780820191505090505b50905060005b84811015610b245783811015610a9157858181518110610a4357610a42611546565b5b602001015160f81c60f81b838281518110610a6157610a60611546565b5b60200101907effffffffffffffffffffffffffffffffffffffffffffffffffffffffffffff1916908160001a9053505b83811115610b1157858181518110610aac57610aab611546565b5b602001015160f81c60f81b8260018684610ac69190611329565b610ad09190611329565b81518110610ae157610ae0611546565b5b60200101907effffffffffffffffffffffffffffffffffffffffffffffffffffffffffffff1916908160001a9053505b8080610b1c906116e5565b915050610a20565b508181965096505050505050915091565b600081519050919050565b606060005b82811015610b84578184604051602001610b609291906115fb565b60405160208183030381529060405291508080610b7c906116e5565b915050610b45565b508381604051602001610b989291906115fb565b60405160208183030381529060405290509392505050565b600080600080606080610bc287610888565b8092508193505050610bd382610e38565b8095508197505050610be481610e38565b809450819650505050505050915091565b60606000821415610c3d576040518060400160405280600181526020017f30000000000000000000000000000000000000000000000000000000000000008152509050610d37565b60008290506000610c4d82610f53565b905060008167ffffffffffffffff811115610c6b57610c6a610fb4565b5b6040519080825280601f01601f191660200182016040528015610c9d5781602001600182028036833780820191505090505b50905060008290508593505b60008414610d2f57600a84610cbe919061175d565b6030610cca91906114f0565b60f81b8282610cd89061178e565b92508281518110610cec57610ceb611546565b5b60200101907effffffffffffffffffffffffffffffffffffffffffffffffffffffffffffff1916908160001a905350600a84610d2891906117b8565b9350610ca9565b819450505050505b919050565b6060600084905060008484610d519190611329565b67ffffffffffffffff811115610d6a57610d69610fb4565b5b6040519080825280601f01601f191660200182016040528015610d9c5781602001600182028036833780820191505090505b50905060008590505b84811015610e2b57828181518110610dc057610dbf611546565b5b602001015160f81c60f81b828783610dd89190611329565b81518110610de957610de8611546565b5b60200101907effffffffffffffffffffffffffffffffffffffffffffffffffffffffffffff1916908160001a9053508080610e23906116e5565b915050610da5565b5080925050509392505050565b60008060005b8351811015610f455760006030858381518110610e5e57610e5d611546565b5b602001015160f81c60f81b60f81c610e7691906117f6565b60ff161080610eb4575060096030858381518110610e9757610e96611546565b5b602001015160f81c60f81b60f81c610eaf91906117f6565b60ff16115b15610ec6576000809250925050610f4e565b6001818551610ed59190611329565b610edf9190611329565b600a610eeb919061195d565b6030858381518110610f0057610eff611546565b5b602001015160f81c60f81b60f81c610f1891906117f6565b60ff16610f2591906119a8565b83610f3091906114f0565b92508080610f3d906116e5565b915050610e3e565b50816001915091505b915091565b60005b60008214610f80578080610f69906116e5565b915050600a82610f7991906117b8565b9150610f56565b919050565b6000604051905090565b600080fd5b600080fd5b600080fd5b600080fd5b6000601f19601f8301169050919050565b7f4e487b7100000000000000000000000000000000000000000000000000000000600052604160045260246000fd5b610fec82610fa3565b810181811067ffffffffffffffff8211171561100b5761100a610fb4565b5b80604052505050565b600061101e610f85565b905061102a8282610fe3565b919050565b600067ffffffffffffffff82111561104a57611049610fb4565b5b61105382610fa3565b9050602081019050919050565b82818337600083830152505050565b600061108261107d8461102f565b611014565b90508281526020810184848401111561109e5761109d610f9e565b5b6110a9848285611060565b509392505050565b600082601f8301126110c6576110c5610f99565b5b81356110d684826020860161106f565b91505092915050565b600080604083850312156110f6576110f5610f8f565b5b600083013567ffffffffffffffff81111561111457611113610f94565b5b611120858286016110b1565b925050602083013567ffffffffffffffff81111561114157611140610f94565b5b61114d858286016110b1565b9150509250929050565b600081519050919050565b600082825260208201905092915050565b60005b83811015611191578082015181840152602081019050611176565b838111156111a0576000848401525b50505050565b60006111b182611157565b6111bb8185611162565b93506111cb818560208601611173565b6111d481610fa3565b840191505092915050565b600060408201905081810360008301526111f981856111a6565b9050818103602083015261120d81846111a6565b90509392505050565b6000819050919050565b61122981611216565b82525050565b60006060820190506112446000830186611220565b6112516020830185611220565b818103604083015261126381846111a6565b9050949350505050565b60006020828403121561128357611282610f8f565b5b600082013567ffffffffffffffff8111156112a1576112a0610f94565b5b6112ad848285016110b1565b91505092915050565b60008115159050919050565b6112cb816112b6565b82525050565b60006040820190506112e66000830185611220565b6112f360208301846112c2565b9392505050565b7f4e487b7100000000000000000000000000000000000000000000000000000000600052601160045260246000fd5b600061133482611216565b915061133f83611216565b925082821015611352576113516112fa565b5b828203905092915050565b600081905092915050565b7f3130000000000000000000000000000000000000000000000000000000000000600082015250565b600061139e60028361135d565b91506113a982611368565b600282019050919050565b60006113bf82611157565b6113c9818561135d565b93506113d9818560208601611173565b80840191505092915050565b60006113f082611391565b91506113fc82846113b4565b915081905092915050565b7f3330000000000000000000000000000000000000000000000000000000000000600082015250565b600061143d60028361135d565b915061144882611407565b600282019050919050565b600061145e82611430565b915061146a82846113b4565b915081905092915050565b7f2e00000000000000000000000000000000000000000000000000000000000000600082015250565b60006114ab60018361135d565b91506114b682611475565b600182019050919050565b60006114cd82856113b4565b91506114d88261149e565b91506114e482846113b4565b91508190509392505050565b60006114fb82611216565b915061150683611216565b9250827fffffffffffffffffffffffffffffffffffffffffffffffffffffffffffffffff0382111561153b5761153a6112fa565b5b828201905092915050565b7f4e487b7100000000000000000000000000000000000000000000000000000000600052603260045260246000fd5b7f2d00000000000000000000000000000000000000000000000000000000000000600082015250565b60006115ab60018361135d565b91506115b682611575565b600182019050919050565b60006115cc8261159e565b91506115d882856113b4565b91506115e38261149e565b91506115ef82846113b4565b91508190509392505050565b600061160782856113b4565b915061161382846113b4565b91508190509392505050565b600081519050919050565b600081905092915050565b60006116408261161f565b61164a818561162a565b935061165a818560208601611173565b80840191505092915050565b60006116728284611635565b915081905092915050565b60007fff0000000000000000000000000000000000000000000000000000000000000082169050919050565b6000819050919050565b6116c46116bf8261167d565b6116a9565b82525050565b60006116d682846116b3565b60018201915081905092915050565b60006116f082611216565b91507fffffffffffffffffffffffffffffffffffffffffffffffffffffffffffffffff821415611723576117226112fa565b5b600182019050919050565b7f4e487b7100000000000000000000000000000000000000000000000000000000600052601260045260246000fd5b600061176882611216565b915061177383611216565b9250826117835761178261172e565b5b828206905092915050565b600061179982611216565b915060008214156117ad576117ac6112fa565b5b600182039050919050565b60006117c382611216565b91506117ce83611216565b9250826117de576117dd61172e565b5b828204905092915050565b600060ff82169050919050565b6000611801826117e9565b915061180c836117e9565b92508282101561181f5761181e6112fa565b5b828203905092915050565b60008160011c9050919050565b6000808291508390505b60018511156118815780860481111561185d5761185c6112fa565b5b600185161561186c5780820291505b808102905061187a8561182a565b9450611841565b94509492505050565b60008261189a5760019050611956565b816118a85760009050611956565b81600181146118be57600281146118c8576118f7565b6001915050611956565b60ff8411156118da576118d96112fa565b5b8360020a9150848211156118f1576118f06112fa565b5b50611956565b5060208310610133831016604e8410600b841016171561192c5782820a905083811115611927576119266112fa565b5b611956565b6119398484846001611837565b925090508184048111156119505761194f6112fa565b5b81810290505b9392505050565b600061196882611216565b915061197383611216565b92506119a07fffffffffffffffffffffffffffffffffffffffffffffffffffffffffffffffff848461188a565b905092915050565b60006119b382611216565b91506119be83611216565b9250817fffffffffffffffffffffffffffffffffffffffffffffffffffffffffffffffff04831182151516156119f7576119f66112fa565b5b82820290509291505056fea2646970667358221220393f1d8062e0acedd848e6f9e6196621a112e36fef5f83723a22c81a9f0089b864736f6c63430008090033",
  "immutableReferences": {},
  "source": "// SPDX-License-Identifier: MIT\npragma solidity 0.8.9;\n\ncontract MathLibrary {\n    //=== add two floating points. Input and output are all unsigned integers\n    function addFloat(string memory _str1, string memory _str2)\n        public\n        pure\n        returns (\n            uint256 wp,\n            uint256 dp,\n            string memory _str\n        )\n    {\n        uint256 wp1;\n        uint256 dp1;\n        uint256 wp2;\n        uint256 dp2;\n        bool isUint;\n\n        string memory str1;\n        string memory str2;\n\n        (str1, str2) = normalizeNumbers(_str1, _str2);\n\n        (wp1, dp1) = splitDecimalStringToIntegers(str1);\n        (wp2, dp2) = splitDecimalStringToIntegers(str2);\n\n        dp = dp1 + dp2;\n\n        if (bytes(uintToString(dp))[1] != \"0\") {\n            wp = wp1 + wp2 + 1;\n        } else {\n            wp = wp1 + wp2;\n        }\n\n        _str = string(\n            abi.encodePacked(\n                uintToString(wp),\n                \".\",\n                substring(\n                    string(bytes(uintToString(dp))),\n                    2,\n                    bytes(uintToString(dp)).length\n                )\n            )\n        );\n\n        (dp, isUint) = strToUint(\n            substring(\n                string(bytes(uintToString(dp))),\n                2,\n                bytes(uintToString(dp)).length\n            )\n        );\n    }\n\n    //=== substraction with two floating points. Input and output are all unsigned integers\n    function subFloat(string memory _str1, string memory _str2)\n        public\n        pure\n        returns (\n            uint256 wp,\n            uint256 dp,\n            string memory _str\n        )\n    {\n        uint256 wp1;\n        uint256 dp1;\n        uint256 wp2;\n        uint256 dp2;\n        uint256 num1;\n        uint256 num2;\n        bool isUint;\n\n        string memory str1;\n        string memory str2;\n\n        (str1, str2) = normalizeNumbers(_str1, _str2);\n\n        (num1, isUint) = removeDot(str1);\n        (num2, isUint) = removeDot(str2);\n\n        if (num1 == num2) {\n            wp = 0;\n            dp = 0;\n            _str = \"0.0\";\n        } else if (num1 > num2) {\n            (wp1, dp1) = splitDecimalStringToIntegers(str1);\n            (wp2, dp2) = splitDecimalStringToIntegers(str2);\n\n            dp = dp1 - dp2;\n\n            if (bytes(uintToString(dp))[1] != \"0\") {\n                wp = wp1 - wp2 - 1;\n            } else {\n                wp = wp1 - wp2;\n            }\n\n            _str = string(\n                abi.encodePacked(\n                    uintToString(wp),\n                    \".\",\n                    substring(\n                        string(bytes(uintToString(dp))),\n                        2,\n                        bytes(uintToString(dp)).length\n                    )\n                )\n            );\n            (dp, isUint) = strToUint(\n                substring(\n                    string(bytes(uintToString(dp))),\n                    2,\n                    bytes(uintToString(dp)).length\n                )\n            );\n        } else {\n            (wp1, dp1) = splitDecimalStringToIntegers(str1);\n            (wp2, dp2) = splitDecimalStringToIntegers(str2);\n\n            dp = dp2 - dp1;\n\n            if (bytes(uintToString(dp))[1] != \"0\") {\n                wp = wp2 - wp1 - 1;\n            } else {\n                wp = wp2 - wp1;\n            }\n\n            _str = string(\n                abi.encodePacked(\n                    \"-\",\n                    uintToString(wp),\n                    \".\",\n                    substring(\n                        string(bytes(uintToString(dp))),\n                        2,\n                        bytes(uintToString(dp)).length\n                    )\n                )\n            );\n            (dp, isUint) = strToUint(\n                substring(\n                    string(bytes(uintToString(dp))),\n                    2,\n                    bytes(uintToString(dp)).length\n                )\n            );\n        }\n    }\n\n    //=== Find the length of an unsigned integer\n    function lengthOfUint(uint256 _num) private pure returns (uint256 length) {\n        while (_num != 0) {\n            length++;\n            _num /= 10;\n        }\n    }\n\n    //=== Find the number of bytes in a string\n    function lengthOfString(string memory _str) private pure returns (uint256) {\n        return bytes(_str).length;\n    }\n\n    //=== Return the maximum number\n    function max(uint256 _num1, uint256 _num2)\n        private\n        pure\n        returns (uint256 maxNumber)\n    {\n        _num1 >= _num2 ? maxNumber = _num1 : maxNumber = _num2;\n    }\n\n    //=== Separates decimal number (string) to whole number (string) and decimal parts (string)\n    function splitstring(string memory _str)\n        private\n        pure\n        returns (string memory, string memory)\n    {\n        bytes memory strBytes = bytes(_str);\n        uint256 n = strBytes.length;\n\n        uint256 limit;\n\n        for (uint256 i = 0; i < n; i++) {\n            if (\n                keccak256(abi.encodePacked(strBytes[i])) ==\n                keccak256(abi.encodePacked(bytes(\".\")))\n            ) {\n                limit = i;\n            }\n        }\n\n        bytes memory wholeNumberPart = new bytes(limit);\n        bytes memory decimalPart = new bytes(n - limit - 1);\n\n        for (uint256 i = 0; i < n; i++) {\n            if (i < limit) {\n                wholeNumberPart[i] = strBytes[i];\n            }\n\n            if (i > limit) {\n                decimalPart[i - limit - 1] = strBytes[i];\n            }\n        }\n\n        return (string(wholeNumberPart), string(decimalPart));\n    }\n\n    //=== extract part of string starting at _startIndex and ending at _endIndex\n    function substring(\n        string memory _str,\n        uint256 _startIndex,\n        uint256 _endIndex\n    ) private pure returns (string memory) {\n        bytes memory strBytes = bytes(_str);\n        bytes memory result = new bytes(_endIndex - _startIndex);\n        for (uint256 i = _startIndex; i < _endIndex; i++) {\n            result[i - _startIndex] = strBytes[i];\n        }\n\n        return string(result);\n    }\n\n    //=== Convert a string to a uint with error handling\n    function strToUint(string memory _str)\n        private\n        pure\n        returns (uint256 res, bool err)\n    {\n        for (uint256 i = 0; i < bytes(_str).length; i++) {\n            if (\n                (uint8(bytes(_str)[i]) - 48) < 0 ||\n                (uint8(bytes(_str)[i]) - 48) > 9\n            ) {\n                return (0, false);\n            }\n            res +=\n                (uint8(bytes(_str)[i]) - 48) *\n                10**(bytes(_str).length - i - 1);\n        }\n\n        return (res, true);\n    }\n\n    function splitDecimalStringToIntegers(string memory _str)\n        private\n        pure\n        returns (uint256 wp, uint256 dp)\n    {\n        bool wpBool;\n        bool dpBool;\n        string memory wholeNumberPart;\n        string memory decimalPart;\n\n        (wholeNumberPart, decimalPart) = splitstring(_str);\n\n        (wp, wpBool) = strToUint(wholeNumberPart);\n        (dp, dpBool) = strToUint(decimalPart);\n\n        return (wp, dp);\n    }\n\n    //=== Separates decimal number (string) to whole number (uint) and decimal (uint) parts\n    function uintToString(uint256 _i) private pure returns (string memory str) {\n        if (_i == 0) return \"0\";\n\n        uint256 j = _i;\n        uint256 length;\n\n        length = lengthOfUint(j);\n\n        bytes memory bstr = new bytes(length);\n        uint256 k = length;\n        j = _i;\n\n        while (j != 0) {\n            bstr[--k] = bytes1(uint8(48 + (j % 10)));\n            j /= 10;\n        }\n\n        str = string(bstr);\n\n        return str;\n    }\n\n    // Add 10 at the bigining of the decimal parts and add zero at the end to have same number of digits for the two Input\n    function normalizeNumbers(string memory _str1, string memory _str2)\n        public\n        pure\n        returns (string memory, string memory)\n    {\n        string memory wpStr1;\n        string memory dpStr1;\n        string memory wpStr2;\n        string memory dpStr2;\n\n        uint256 num1;\n        uint256 num2;\n        bool isUint;\n\n        (wpStr1, dpStr1) = splitstring(_str1);\n        (wpStr2, dpStr2) = splitstring(_str2);\n\n        if (lengthOfString(dpStr1) < lengthOfString(dpStr2)) {\n            dpStr1 = paddRight(\n                dpStr1,\n                \"0\",\n                lengthOfString(dpStr2) - lengthOfString(dpStr1)\n            );\n        }\n\n        if (lengthOfString(dpStr2) < lengthOfString(dpStr1)) {\n            dpStr2 = paddRight(\n                dpStr2,\n                \"0\",\n                lengthOfString(dpStr1) - lengthOfString(dpStr2)\n            );\n        }\n\n        (num1, isUint) = removeDot(_str1);\n        (num2, isUint) = removeDot(_str2);\n\n        if (num1 == num2) {\n            dpStr1 = string(abi.encodePacked(\"10\", dpStr1));\n            dpStr2 = string(abi.encodePacked(\"10\", dpStr2));\n        } else if (num1 > num2) {\n            dpStr1 = string(abi.encodePacked(\"30\", dpStr1));\n            dpStr2 = string(abi.encodePacked(\"10\", dpStr2));\n        } else {\n            dpStr1 = string(abi.encodePacked(\"10\", dpStr1));\n            dpStr2 = string(abi.encodePacked(\"30\", dpStr2));\n        }\n\n        return (\n            string(abi.encodePacked(wpStr1, \".\", dpStr1)),\n            string(abi.encodePacked(wpStr2, \".\", dpStr2))\n        );\n    }\n\n    //=== Put numbers to equal number of digits\n    function equalDigitsRight(uint256 _num1, uint256 _num2)\n        private\n        pure\n        returns (uint256 num1, uint256 num2)\n    {\n        //uint256 num1;\n        //uint256 num2;\n\n        if (lengthOfUint(_num1) == lengthOfUint(_num2)) {\n            num1 = _num1;\n            num2 = _num2;\n        } else {\n            if (lengthOfUint(_num1) > lengthOfUint(_num2)) {\n                string memory str2 = uintToString(_num2);\n                bool isUint;\n\n                str2 = paddRight(\n                    str2,\n                    \"0\",\n                    lengthOfUint(_num1) - lengthOfUint(_num2)\n                );\n\n                num1 = _num1;\n                (num2, isUint) = strToUint(str2);\n            } else {\n                string memory str1 = uintToString(_num1);\n                bool isUint;\n\n                str1 = paddRight(\n                    str1,\n                    \"0\",\n                    lengthOfUint(_num2) - lengthOfUint(_num1)\n                );\n\n                (num1, isUint) = strToUint(str1);\n                num2 = _num2;\n            }\n        }\n    }\n\n    //=== Put numbers to equal number of digits\n    function equalDigitsLeft(uint256 _num1, uint256 _num2)\n        private\n        pure\n        returns (uint256 num1, uint256 num2)\n    {\n        //uint256 num1;\n        //uint256 num2;\n\n        if (lengthOfUint(_num1) == lengthOfUint(_num2)) {\n            num1 = _num1;\n            num2 = _num2;\n        } else {\n            if (lengthOfUint(_num1) > lengthOfUint(_num2)) {\n                string memory str2 = uintToString(_num2);\n                bool isUint;\n\n                str2 = paddLeft(\n                    str2,\n                    \"0\",\n                    lengthOfUint(_num1) - lengthOfUint(_num2)\n                );\n\n                num1 = _num1;\n                (num2, isUint) = strToUint(str2);\n            } else {\n                string memory str1 = uintToString(_num1);\n                bool isUint;\n\n                str1 = paddLeft(\n                    str1,\n                    \"0\",\n                    lengthOfUint(_num2) - lengthOfUint(_num1)\n                );\n\n                (num1, isUint) = strToUint(str1);\n                num2 = _num2;\n            }\n        }\n    }\n\n    //=== Removing the dot \".\" id decimal. Ex: \"12.45 => 1245\"\n    function removeDot(string memory _str) public pure returns (uint256, bool) {\n        string memory wp;\n        string memory dp;\n\n        (wp, dp) = splitstring(_str);\n\n        return strToUint(string(abi.encodePacked(wp, dp)));\n    }\n\n    //=== Padding Right\n    function paddRight(\n        string memory _str,\n        string memory _padStr,\n        uint256 _padSize\n    ) private pure returns (string memory str) {\n        for (uint256 i = 0; i < _padSize; i++) {\n            str = string(abi.encodePacked(str, _padStr));\n        }\n\n        return string(abi.encodePacked(_str, str));\n    }\n\n    //=== Padding Left\n    function paddLeft(\n        string memory _str,\n        string memory _padStr,\n        uint256 _padSize\n    ) private pure returns (string memory str) {\n        for (uint256 i = 0; i < _padSize; i++) {\n            str = string(abi.encodePacked(str, _padStr));\n        }\n\n        return string(abi.encodePacked(str, _str));\n    }\n}\n",
  "sourcePath": "/Users/samuel/Documents/Projet/Pojet_Dev/Solity_Math/contracts/MathLibrary.sol",
  "compiler": {
    "name": "solc",
    "version": "0.8.9+commit.e5eed63a.Emscripten.clang"
  },
  "schemaVersion": "3.3.4",
  "updatedAt": "2021-10-13T17:55:32.063Z",
  "networkType": "ethereum",
  "devdoc": {
    "kind": "dev",
    "methods": {},
    "version": 1
  },
  "userdoc": {
    "kind": "user",
    "methods": {},
    "version": 1
  }
}