{
  "contractName": "MathLibrary",
  "abi": [
    {
      "inputs": [
        {
          "internalType": "string",
          "name": "_str1",
          "type": "string"
        },
        {
          "internalType": "string",
          "name": "_str2",
          "type": "string"
        }
      ],
      "name": "addFloat",
      "outputs": [
        {
          "internalType": "uint256",
          "name": "wp",
          "type": "uint256"
        },
        {
          "internalType": "uint256",
          "name": "dp",
          "type": "uint256"
        },
        {
          "internalType": "string",
          "name": "_str",
          "type": "string"
        }
      ],
      "stateMutability": "pure",
      "type": "function",
      "constant": true
    },
    {
      "inputs": [
        {
          "internalType": "string",
          "name": "_str1",
          "type": "string"
        },
        {
          "internalType": "string",
          "name": "_str2",
          "type": "string"
        }
      ],
      "name": "subFloat",
      "outputs": [
        {
          "internalType": "uint256",
          "name": "wp",
          "type": "uint256"
        },
        {
          "internalType": "uint256",
          "name": "dp",
          "type": "uint256"
        },
        {
          "internalType": "string",
          "name": "_str",
          "type": "string"
        }
      ],
      "stateMutability": "pure",
      "type": "function",
      "constant": true
    },
    {
      "inputs": [
        {
          "internalType": "string",
          "name": "_str1",
          "type": "string"
        },
        {
          "internalType": "string",
          "name": "_str2",
          "type": "string"
        }
      ],
      "name": "mulFloat",
      "outputs": [
        {
          "internalType": "uint256",
          "name": "wp",
          "type": "uint256"
        },
        {
          "internalType": "uint256",
          "name": "dp",
          "type": "uint256"
        },
        {
          "internalType": "string",
          "name": "_str",
          "type": "string"
        }
      ],
      "stateMutability": "pure",
      "type": "function",
      "constant": true
    },
    {
      "inputs": [
        {
          "internalType": "string",
          "name": "_str1",
          "type": "string"
        },
        {
          "internalType": "string",
          "name": "_str2",
          "type": "string"
        }
      ],
      "name": "normalizeNumbers",
      "outputs": [
        {
          "internalType": "string",
          "name": "",
          "type": "string"
        },
        {
          "internalType": "string",
          "name": "",
          "type": "string"
        }
      ],
      "stateMutability": "pure",
      "type": "function",
      "constant": true
    },
    {
      "inputs": [
        {
          "internalType": "string",
          "name": "_str",
          "type": "string"
        }
      ],
      "name": "removeDot",
      "outputs": [
        {
          "internalType": "uint256",
          "name": "",
          "type": "uint256"
        },
        {
          "internalType": "bool",
          "name": "",
          "type": "bool"
        }
      ],
      "stateMutability": "pure",
      "type": "function",
      "constant": true
    },
    {
      "inputs": [
        {
          "internalType": "string",
          "name": "_str1",
          "type": "string"
        },
        {
          "internalType": "string",
          "name": "_str2",
          "type": "string"
        }
      ],
      "name": "removeDotAndNormalize",
      "outputs": [
        {
          "internalType": "uint256",
          "name": "",
          "type": "uint256"
        },
        {
          "internalType": "uint256",
          "name": "",
          "type": "uint256"
        }
      ],
      "stateMutability": "pure",
      "type": "function",
      "constant": true
    }
  ],
  "bytecode": "0x608060405234801561001057600080fd5b50612572806100206000396000f3fe608060405234801561001057600080fd5b50600436106100625760003560e01c80632c5a583814610067578063384f6cdb14610099578063a196f789146100ca578063c811001f146100fb578063d82ece861461012d578063ee5bf7c91461015f575b600080fd5b610081600480360381019061007c9190611b79565b610190565b60405161009093929190611c92565b60405180910390f35b6100b360048036038101906100ae9190611b79565b610a4c565b6040516100c1929190611cd0565b60405180910390f35b6100e460048036038101906100df9190611b79565b610cb5565b6040516100f2929190611d07565b60405180910390f35b61011560048036038101906101109190611b79565b610e49565b60405161012493929190611c92565b60405180910390f35b61014760048036038101906101429190611b79565b610fbb565b60405161015693929190611c92565b60405180910390f35b61017960048036038101906101749190611d30565b6112e2565b604051610187929190611d94565b60405180910390f35b600080606080606080606080606060006101a98c61132e565b80975081985050506101ba8b61132e565b80955081965050507f2d00000000000000000000000000000000000000000000000000000000000000876000815181106101f7576101f6611dbd565b5b602001015160f81c60f81b7effffffffffffffffffffffffffffffffffffffffffffffffffffffffffffff191614156102935761023e8760016102398a6115d5565b6115e0565b96506040518060400160405280600181526020017f2d00000000000000000000000000000000000000000000000000000000000000815250925061028c8c60016102878f6115d5565b6115e0565b9b506102cc565b6040518060400160405280600181526020017f2b0000000000000000000000000000000000000000000000000000000000000081525092505b7f2d000000000000000000000000000000000000000000000000000000000000008560008151811061030157610300611dbd565b5b602001015160f81c60f81b7effffffffffffffffffffffffffffffffffffffffffffffffffffffffffffff1916141561039d57610348856001610343886115d5565b6115e0565b94506040518060400160405280600181526020017f2d0000000000000000000000000000000000000000000000000000000000000081525091506103968b60016103918e6115d5565b6115e0565b9a506103d6565b6040518060400160405280600181526020017f2b0000000000000000000000000000000000000000000000000000000000000081525091505b7f30000000000000000000000000000000000000000000000000000000000000008760008151811061040b5761040a611dbd565b5b602001015160f81c60f81b7effffffffffffffffffffffffffffffffffffffffffffffffffffffffffffff19161480156104a457507f30000000000000000000000000000000000000000000000000000000000000008660008151811061047557610474611dbd565b5b602001015160f81c60f81b7effffffffffffffffffffffffffffffffffffffffffffffffffffffffffffff1916145b8061057957507f3000000000000000000000000000000000000000000000000000000000000000856000815181106104df576104de611dbd565b5b602001015160f81c60f81b7effffffffffffffffffffffffffffffffffffffffffffffffffffffffffffff191614801561057857507f30000000000000000000000000000000000000000000000000000000000000008460008151811061054957610548611dbd565b5b602001015160f81c60f81b7effffffffffffffffffffffffffffffffffffffffffffffffffffffffffffff1916145b5b156105ab57600099506000985060405160200161059590611e8f565b6040516020818303038152906040529750610a3e565b6105b48c6112e2565b809250819b5050506105c58b6112e2565b809250819a5050506105e1898b6105dc9190611ee9565b6116d6565b97506106256106208960006105f5886115d5565b6105fe8b6115d5565b6106089190611f43565b6106118d6115d5565b61061b9190611f99565b6115e0565b61181d565b809250819b5050506106766106718961063d876115d5565b6106468a6115d5565b6106509190611f43565b6106598c6115d5565b6106639190611f99565b61066c8c6115d5565b6115e0565b61181d565b809250819a5050507f2b00000000000000000000000000000000000000000000000000000000000000836000815181106106b3576106b2611dbd565b5b602001015160f81c60f81b7effffffffffffffffffffffffffffffffffffffffffffffffffffffffffffff191614801561074c57507f2b000000000000000000000000000000000000000000000000000000000000008260008151811061071d5761071c611dbd565b5b602001015160f81c60f81b7effffffffffffffffffffffffffffffffffffffffffffffffffffffffffffff1916145b8061082157507f2d000000000000000000000000000000000000000000000000000000000000008360008151811061078757610786611dbd565b5b602001015160f81c60f81b7effffffffffffffffffffffffffffffffffffffffffffffffffffffffffffff191614801561082057507f2d00000000000000000000000000000000000000000000000000000000000000826000815181106107f1576107f0611dbd565b5b602001015160f81c60f81b7effffffffffffffffffffffffffffffffffffffffffffffffffffffffffffff1916145b5b1561085f5761082f8a6116d6565b6108388a6116d6565b604051602001610849929190611ffe565b6040516020818303038152906040529750610a3d565b7f2b000000000000000000000000000000000000000000000000000000000000008360008151811061089457610893611dbd565b5b602001015160f81c60f81b7effffffffffffffffffffffffffffffffffffffffffffffffffffffffffffff191614801561092d57507f2d00000000000000000000000000000000000000000000000000000000000000826000815181106108fe576108fd611dbd565b5b602001015160f81c60f81b7effffffffffffffffffffffffffffffffffffffffffffffffffffffffffffff1916145b80610a0257507f2d000000000000000000000000000000000000000000000000000000000000008360008151811061096857610967611dbd565b5b602001015160f81c60f81b7effffffffffffffffffffffffffffffffffffffffffffffffffffffffffffff1916148015610a0157507f2b00000000000000000000000000000000000000000000000000000000000000826000815181106109d2576109d1611dbd565b5b602001015160f81c60f81b7effffffffffffffffffffffffffffffffffffffffffffffffffffffffffffff1916145b5b15610a3c57610a108a6116d6565b610a198a6116d6565b604051602001610a2a929190612079565b60405160208183030381529060405297505b5b5b505050505050509250925092565b606080606080606080600080610a618a61132e565b8096508197505050610a728961132e565b8094508195505050610a83836115d5565b610a8c866115d5565b1015610af057610aed856040518060400160405280600181526020017f3000000000000000000000000000000000000000000000000000000000000000815250610ad5886115d5565b610ade876115d5565b610ae89190611f99565b611938565b94505b610af9856115d5565b610b02846115d5565b1015610b6657610b63836040518060400160405280600181526020017f3000000000000000000000000000000000000000000000000000000000000000815250610b4b866115d5565b610b54896115d5565b610b5e9190611f99565b611938565b92505b610b708a8a610cb5565b809250819350505080821415610bc95784604051602001610b9191906120ff565b604051602081830303815290604052945082604051602001610bb391906120ff565b6040516020818303038152906040529250610c60565b80821115610c1a5784604051602001610be2919061216d565b604051602081830303815290604052945082604051602001610c0491906120ff565b6040516020818303038152906040529250610c5f565b84604051602001610c2b91906120ff565b604051602081830303815290604052945082604051602001610c4d919061216d565b60405160208183030381529060405292505b5b8585604051602001610c73929190611ffe565b6040516020818303038152906040528484604051602001610c95929190611ffe565b604051602081830303815290604052975097505050505050509250929050565b6000806060806060806000806000610ccc8b61132e565b8097508198505050610cdd8a61132e565b8095508196505050610cee846115d5565b610cf7876115d5565b1015610d5b57610d58866040518060400160405280600181526020017f3000000000000000000000000000000000000000000000000000000000000000815250610d40896115d5565b610d49886115d5565b610d539190611f99565b611938565b95505b610d64866115d5565b610d6d856115d5565b1015610dd157610dce846040518060400160405280600181526020017f3000000000000000000000000000000000000000000000000000000000000000815250610db6876115d5565b610dbf8a6115d5565b610dc99190611f99565b611938565b93505b610dfb8787604051602001610de792919061218f565b60405160208183030381529060405261181d565b8094508193505050610e2d8585604051602001610e1992919061218f565b60405160208183030381529060405261181d565b8094508192505050818198509850505050505050509250929050565b60008060606000806000806000606080610e638c8c610a4c565b8092508193505050610e74826119a8565b8097508198505050610e85816119a8565b80955081965050508386610e999190611f43565b98507f3000000000000000000000000000000000000000000000000000000000000000610ec58a6116d6565b600181518110610ed857610ed7611dbd565b5b602001015160f81c60f81b7effffffffffffffffffffffffffffffffffffffffffffffffffffffffffffff191614610f295760018588610f189190611f43565b610f229190611f43565b9950610f38565b8487610f359190611f43565b99505b610f418a6116d6565b610f5e610f4d8b6116d6565b6002610f588d6116d6565b516115e0565b604051602001610f6f929190611ffe565b6040516020818303038152906040529750610fa5610fa0610f8f8b6116d6565b6002610f9a8d6116d6565b516115e0565b61181d565b809450819a505050505050505050509250925092565b60008060606000806000806000806000606080610fd88e8e610a4c565b8092508193505050610fea8282610cb5565b80955081965050508385141561103f5760009b5060009a506040518060400160405280600381526020017f302e30000000000000000000000000000000000000000000000000000000000081525099506112d2565b8385111561118e57611050826119a8565b809950819a505050611061816119a8565b809750819850505085886110759190611f99565b9a507f30000000000000000000000000000000000000000000000000000000000000006110a18c6116d6565b6001815181106110b4576110b3611dbd565b5b602001015160f81c60f81b7effffffffffffffffffffffffffffffffffffffffffffffffffffffffffffff191614611105576001878a6110f49190611f99565b6110fe9190611f99565b9b50611114565b86896111119190611f99565b9b505b61111d8c6116d6565b61113a6111298d6116d6565b60026111348f6116d6565b516115e0565b60405160200161114b929190611ffe565b604051602081830303815290604052995061118161117c61116b8d6116d6565b60026111768f6116d6565b516115e0565b61181d565b809450819c5050506112d1565b611197826119a8565b809950819a5050506111a8816119a8565b809750819850505087866111bc9190611f99565b9a507f30000000000000000000000000000000000000000000000000000000000000006111e88c6116d6565b6001815181106111fb576111fa611dbd565b5b602001015160f81c60f81b7effffffffffffffffffffffffffffffffffffffffffffffffffffffffffffff19161461124c576001898861123b9190611f99565b6112459190611f99565b9b5061125b565b88876112589190611f99565b9b505b6112648c6116d6565b6112816112708d6116d6565b600261127b8f6116d6565b516115e0565b604051602001611292929190612079565b60405160208183030381529060405299506112c86112c36112b28d6116d6565b60026112bd8f6116d6565b516115e0565b61181d565b809450819c5050505b5b5050505050505050509250925092565b6000806060806112f18561132e565b8092508193505050611323828260405160200161130f92919061218f565b60405160208183030381529060405261181d565b935093505050915091565b606080600083519050600080600090505b82811015611404576040518060400160405280600181526020017f2e0000000000000000000000000000000000000000000000000000000000000081525060405160200161138d91906121fa565b604051602081830303815290604052805190602001208682815181106113b6576113b5611dbd565b5b602001015160f81c60f81b6040516020016113d1919061225e565b6040516020818303038152906040528051906020012014156113f1578091505b80806113fc90612279565b91505061133f565b5060008167ffffffffffffffff81111561142157611420611a4e565b5b6040519080825280601f01601f1916602001820160405280156114535781602001600182028036833780820191505090505b5090506000600183856114669190611f99565b6114709190611f99565b67ffffffffffffffff81111561148957611488611a4e565b5b6040519080825280601f01601f1916602001820160405280156114bb5781602001600182028036833780820191505090505b50905060005b848110156115c55783811015611532578781815181106114e4576114e3611dbd565b5b602001015160f81c60f81b83828151811061150257611501611dbd565b5b60200101907effffffffffffffffffffffffffffffffffffffffffffffffffffffffffffff1916908160001a9053505b838111156115b25787818151811061154d5761154c611dbd565b5b602001015160f81c60f81b82600186846115679190611f99565b6115719190611f99565b8151811061158257611581611dbd565b5b60200101907effffffffffffffffffffffffffffffffffffffffffffffffffffffffffffff1916908160001a9053505b80806115bd90612279565b9150506114c1565b5081819550955050505050915091565b600081519050919050565b6060600083836115f09190611f99565b67ffffffffffffffff81111561160957611608611a4e565b5b6040519080825280601f01601f19166020018201604052801561163b5781602001600182028036833780820191505090505b50905060008490505b838110156116ca5785818151811061165f5761165e611dbd565b5b602001015160f81c60f81b8286836116779190611f99565b8151811061168857611687611dbd565b5b60200101907effffffffffffffffffffffffffffffffffffffffffffffffffffffffffffff1916908160001a90535080806116c290612279565b915050611644565b50809150509392505050565b6060600082141561171e576040518060400160405280600181526020017f30000000000000000000000000000000000000000000000000000000000000008152509050611818565b6000829050600061172e826119ed565b905060008167ffffffffffffffff81111561174c5761174b611a4e565b5b6040519080825280601f01601f19166020018201604052801561177e5781602001600182028036833780820191505090505b50905060008290508593505b6000841461181057600a8461179f91906122f1565b60306117ab9190611f43565b60f81b82826117b990612322565b925082815181106117cd576117cc611dbd565b5b60200101907effffffffffffffffffffffffffffffffffffffffffffffffffffffffffffff1916908160001a905350600a84611809919061234c565b935061178a565b819450505050505b919050565b60008060005b835181101561192a576000603085838151811061184357611842611dbd565b5b602001015160f81c60f81b60f81c61185b919061238a565b60ff16108061189957506009603085838151811061187c5761187b611dbd565b5b602001015160f81c60f81b60f81c611894919061238a565b60ff16115b156118ab576000809250925050611933565b60018185516118ba9190611f99565b6118c49190611f99565b600a6118d091906124f1565b60308583815181106118e5576118e4611dbd565b5b602001015160f81c60f81b60f81c6118fd919061238a565b60ff1661190a9190611ee9565b836119159190611f43565b9250808061192290612279565b915050611823565b50816001915091505b915091565b606060005b8281101561197c57818460405160200161195892919061218f565b6040516020818303038152906040529150808061197490612279565b91505061193d565b50838160405160200161199092919061218f565b60405160208183030381529060405290509392505050565b6000806000806060806119ba8761132e565b80925081935050506119cb8261181d565b80955081975050506119dc8161181d565b809450819650505050505050915091565b60005b60008214611a1a578080611a0390612279565b915050600a82611a13919061234c565b91506119f0565b919050565b6000604051905090565b600080fd5b600080fd5b600080fd5b600080fd5b6000601f19601f8301169050919050565b7f4e487b7100000000000000000000000000000000000000000000000000000000600052604160045260246000fd5b611a8682611a3d565b810181811067ffffffffffffffff82111715611aa557611aa4611a4e565b5b80604052505050565b6000611ab8611a1f565b9050611ac48282611a7d565b919050565b600067ffffffffffffffff821115611ae457611ae3611a4e565b5b611aed82611a3d565b9050602081019050919050565b82818337600083830152505050565b6000611b1c611b1784611ac9565b611aae565b905082815260208101848484011115611b3857611b37611a38565b5b611b43848285611afa565b509392505050565b600082601f830112611b6057611b5f611a33565b5b8135611b70848260208601611b09565b91505092915050565b60008060408385031215611b9057611b8f611a29565b5b600083013567ffffffffffffffff811115611bae57611bad611a2e565b5b611bba85828601611b4b565b925050602083013567ffffffffffffffff811115611bdb57611bda611a2e565b5b611be785828601611b4b565b9150509250929050565b6000819050919050565b611c0481611bf1565b82525050565b600081519050919050565b600082825260208201905092915050565b60005b83811015611c44578082015181840152602081019050611c29565b83811115611c53576000848401525b50505050565b6000611c6482611c0a565b611c6e8185611c15565b9350611c7e818560208601611c26565b611c8781611a3d565b840191505092915050565b6000606082019050611ca76000830186611bfb565b611cb46020830185611bfb565b8181036040830152611cc68184611c59565b9050949350505050565b60006040820190508181036000830152611cea8185611c59565b90508181036020830152611cfe8184611c59565b90509392505050565b6000604082019050611d1c6000830185611bfb565b611d296020830184611bfb565b9392505050565b600060208284031215611d4657611d45611a29565b5b600082013567ffffffffffffffff811115611d6457611d63611a2e565b5b611d7084828501611b4b565b91505092915050565b60008115159050919050565b611d8e81611d79565b82525050565b6000604082019050611da96000830185611bfb565b611db66020830184611d85565b9392505050565b7f4e487b7100000000000000000000000000000000000000000000000000000000600052603260045260246000fd5b600081905092915050565b7f3000000000000000000000000000000000000000000000000000000000000000600082015250565b6000611e2d600183611dec565b9150611e3882611df7565b600182019050919050565b7f2e00000000000000000000000000000000000000000000000000000000000000600082015250565b6000611e79600183611dec565b9150611e8482611e43565b600182019050919050565b6000611e9a82611e20565b9150611ea582611e6c565b9150611eb082611e20565b9150819050919050565b7f4e487b7100000000000000000000000000000000000000000000000000000000600052601160045260246000fd5b6000611ef482611bf1565b9150611eff83611bf1565b9250817fffffffffffffffffffffffffffffffffffffffffffffffffffffffffffffffff0483118215151615611f3857611f37611eba565b5b828202905092915050565b6000611f4e82611bf1565b9150611f5983611bf1565b9250827fffffffffffffffffffffffffffffffffffffffffffffffffffffffffffffffff03821115611f8e57611f8d611eba565b5b828201905092915050565b6000611fa482611bf1565b9150611faf83611bf1565b925082821015611fc257611fc1611eba565b5b828203905092915050565b6000611fd882611c0a565b611fe28185611dec565b9350611ff2818560208601611c26565b80840191505092915050565b600061200a8285611fcd565b915061201582611e6c565b91506120218284611fcd565b91508190509392505050565b7f2d00000000000000000000000000000000000000000000000000000000000000600082015250565b6000612063600183611dec565b915061206e8261202d565b600182019050919050565b600061208482612056565b91506120908285611fcd565b915061209b82611e6c565b91506120a78284611fcd565b91508190509392505050565b7f3130000000000000000000000000000000000000000000000000000000000000600082015250565b60006120e9600283611dec565b91506120f4826120b3565b600282019050919050565b600061210a826120dc565b91506121168284611fcd565b915081905092915050565b7f3330000000000000000000000000000000000000000000000000000000000000600082015250565b6000612157600283611dec565b915061216282612121565b600282019050919050565b60006121788261214a565b91506121848284611fcd565b915081905092915050565b600061219b8285611fcd565b91506121a78284611fcd565b91508190509392505050565b600081519050919050565b600081905092915050565b60006121d4826121b3565b6121de81856121be565b93506121ee818560208601611c26565b80840191505092915050565b600061220682846121c9565b915081905092915050565b60007fff0000000000000000000000000000000000000000000000000000000000000082169050919050565b6000819050919050565b61225861225382612211565b61223d565b82525050565b600061226a8284612247565b60018201915081905092915050565b600061228482611bf1565b91507fffffffffffffffffffffffffffffffffffffffffffffffffffffffffffffffff8214156122b7576122b6611eba565b5b600182019050919050565b7f4e487b7100000000000000000000000000000000000000000000000000000000600052601260045260246000fd5b60006122fc82611bf1565b915061230783611bf1565b925082612317576123166122c2565b5b828206905092915050565b600061232d82611bf1565b9150600082141561234157612340611eba565b5b600182039050919050565b600061235782611bf1565b915061236283611bf1565b925082612372576123716122c2565b5b828204905092915050565b600060ff82169050919050565b60006123958261237d565b91506123a08361237d565b9250828210156123b3576123b2611eba565b5b828203905092915050565b60008160011c9050919050565b6000808291508390505b6001851115612415578086048111156123f1576123f0611eba565b5b60018516156124005780820291505b808102905061240e856123be565b94506123d5565b94509492505050565b60008261242e57600190506124ea565b8161243c57600090506124ea565b8160018114612452576002811461245c5761248b565b60019150506124ea565b60ff84111561246e5761246d611eba565b5b8360020a91508482111561248557612484611eba565b5b506124ea565b5060208310610133831016604e8410600b84101617156124c05782820a9050838111156124bb576124ba611eba565b5b6124ea565b6124cd84848460016123cb565b925090508184048111156124e4576124e3611eba565b5b81810290505b9392505050565b60006124fc82611bf1565b915061250783611bf1565b92506125347fffffffffffffffffffffffffffffffffffffffffffffffffffffffffffffffff848461241e565b90509291505056fea2646970667358221220bce0de304ff2abfcf701825928dee668273345ea4703ad27b079cdcce94b41ef64736f6c63430008090033",
  "immutableReferences": {},
  "source": "// SPDX-License-Identifier: MIT\npragma solidity 0.8.9;\n\ncontract MathLibrary {\n    //=== add two floating points. Input and output are all unsigned integers\n    function addFloat(string memory _str1, string memory _str2)\n        public\n        pure\n        returns (\n            uint256 wp,\n            uint256 dp,\n            string memory _str\n        )\n    {\n        uint256 wp1;\n        uint256 dp1;\n        uint256 wp2;\n        uint256 dp2;\n        bool isUint;\n\n        string memory str1;\n        string memory str2;\n\n        (str1, str2) = normalizeNumbers(_str1, _str2);\n\n        (wp1, dp1) = splitDecimalStringToIntegers(str1);\n        (wp2, dp2) = splitDecimalStringToIntegers(str2);\n\n        dp = dp1 + dp2;\n\n        if (bytes(uintToString(dp))[1] != \"0\") {\n            wp = wp1 + wp2 + 1;\n        } else {\n            wp = wp1 + wp2;\n        }\n\n        _str = string(\n            abi.encodePacked(\n                uintToString(wp),\n                \".\",\n                substring(\n                    string(bytes(uintToString(dp))),\n                    2,\n                    bytes(uintToString(dp)).length\n                )\n            )\n        );\n\n        (dp, isUint) = strToUint(\n            substring(\n                string(bytes(uintToString(dp))),\n                2,\n                bytes(uintToString(dp)).length\n            )\n        );\n    }\n\n    //=== substraction with two floating points. Input and output are all unsigned integers\n    function subFloat(string memory _str1, string memory _str2)\n        public\n        pure\n        returns (\n            uint256 wp,\n            uint256 dp,\n            string memory _str\n        )\n    {\n        uint256 wp1;\n        uint256 dp1;\n        uint256 wp2;\n        uint256 dp2;\n        uint256 num1;\n        uint256 num2;\n        bool isUint;\n\n        string memory str1;\n        string memory str2;\n\n        (str1, str2) = normalizeNumbers(_str1, _str2);\n\n        (num1, num2) = removeDotAndNormalize(str1, str2);\n\n        if (num1 == num2) {\n            wp = 0;\n            dp = 0;\n            _str = \"0.0\";\n        } else if (num1 > num2) {\n            (wp1, dp1) = splitDecimalStringToIntegers(str1);\n            (wp2, dp2) = splitDecimalStringToIntegers(str2);\n\n            dp = dp1 - dp2;\n\n            if (bytes(uintToString(dp))[1] != \"0\") {\n                wp = wp1 - wp2 - 1;\n            } else {\n                wp = wp1 - wp2;\n            }\n\n            _str = string(\n                abi.encodePacked(\n                    uintToString(wp),\n                    \".\",\n                    substring(\n                        string(bytes(uintToString(dp))),\n                        2,\n                        bytes(uintToString(dp)).length\n                    )\n                )\n            );\n            (dp, isUint) = strToUint(\n                substring(\n                    string(bytes(uintToString(dp))),\n                    2,\n                    bytes(uintToString(dp)).length\n                )\n            );\n        } else {\n            (wp1, dp1) = splitDecimalStringToIntegers(str1);\n            (wp2, dp2) = splitDecimalStringToIntegers(str2);\n\n            dp = dp2 - dp1;\n\n            if (bytes(uintToString(dp))[1] != \"0\") {\n                wp = wp2 - wp1 - 1;\n            } else {\n                wp = wp2 - wp1;\n            }\n\n            _str = string(\n                abi.encodePacked(\n                    \"-\",\n                    uintToString(wp),\n                    \".\",\n                    substring(\n                        string(bytes(uintToString(dp))),\n                        2,\n                        bytes(uintToString(dp)).length\n                    )\n                )\n            );\n            (dp, isUint) = strToUint(\n                substring(\n                    string(bytes(uintToString(dp))),\n                    2,\n                    bytes(uintToString(dp)).length\n                )\n            );\n        }\n    }\n\n    //=== Multiplication of two floating points. Input and output are all unsigned integers\n    function mulFloat(string memory _str1, string memory _str2)\n        public\n        pure\n        returns (\n            uint256 wp,\n            uint256 dp,\n            string memory _str\n        )\n    {\n        string memory wpStr1;\n        string memory dpStr1;\n        string memory wpStr2;\n        string memory dpStr2;\n        string memory sign1;\n        string memory sign2;\n\n        bool isUint;\n\n        (wpStr1, dpStr1) = splitstring(_str1);\n        (wpStr2, dpStr2) = splitstring(_str2);\n\n        if (bytes(wpStr1)[0] == \"-\") {\n            wpStr1 = substring(wpStr1, 1, lengthOfString(wpStr1));\n            sign1 = \"-\";\n            _str1 = substring(_str1, 1, lengthOfString(_str1));\n        } else {\n            sign1 = \"+\";\n        }\n\n        if (bytes(wpStr2)[0] == \"-\") {\n            wpStr2 = substring(wpStr2, 1, lengthOfString(wpStr2));\n            sign2 = \"-\";\n            _str2 = substring(_str2, 1, lengthOfString(_str2));\n        } else {\n            sign2 = \"+\";\n        }\n\n        if (\n            (bytes(wpStr1)[0] == \"0\" && bytes(dpStr1)[0] == \"0\") ||\n            (bytes(wpStr2)[0] == \"0\" && bytes(dpStr2)[0] == \"0\")\n        ) {\n            wp = 0;\n            dp = 0;\n            _str = string(abi.encodePacked(\"0\", \".\", \"0\"));\n        } else {\n            (wp, isUint) = removeDot(_str1); // if _str1 = \"3.14\" => wp = 314\n            (dp, isUint) = removeDot(_str2); // if _str2 = \"3.14\" => dp = 314\n\n            _str = uintToString(wp * dp);\n\n            (wp, isUint) = strToUint(\n                substring(\n                    _str,\n                    0,\n                    lengthOfString(_str) -\n                        (lengthOfString(dpStr1) + lengthOfString(dpStr2))\n                )\n            );\n            (dp, isUint) = strToUint(\n                substring(\n                    _str,\n                    lengthOfString(_str) -\n                        (lengthOfString(dpStr1) + lengthOfString(dpStr2)),\n                    lengthOfString(_str)\n                )\n            );\n\n            if (\n                (bytes(sign1)[0] == \"+\" && bytes(sign2)[0] == \"+\") ||\n                (bytes(sign1)[0] == \"-\" && bytes(sign2)[0] == \"-\")\n            ) {\n                _str = string(\n                    abi.encodePacked(uintToString(wp), \".\", uintToString(dp))\n                );\n            } else if (\n                (bytes(sign1)[0] == \"+\" && bytes(sign2)[0] == \"-\") ||\n                (bytes(sign1)[0] == \"-\" && bytes(sign2)[0] == \"+\")\n            ) {\n                _str = string(\n                    abi.encodePacked(\n                        \"-\",\n                        uintToString(wp),\n                        \".\",\n                        uintToString(dp)\n                    )\n                );\n            }\n        }\n    }\n\n    //=== Find the length of an unsigned integer\n    function lengthOfUint(uint256 _num) private pure returns (uint256 length) {\n        while (_num != 0) {\n            length++;\n            _num /= 10;\n        }\n    }\n\n    //=== Find the number of bytes in a string\n    function lengthOfString(string memory _str) private pure returns (uint256) {\n        return bytes(_str).length;\n    }\n\n    //=== Return the maximum number\n    function max(uint256 _num1, uint256 _num2)\n        private\n        pure\n        returns (uint256 maxNumber)\n    {\n        _num1 >= _num2 ? maxNumber = _num1 : maxNumber = _num2;\n    }\n\n    //=== Separates decimal number (string) to whole number (string) and decimal parts (string)\n    function splitstring(string memory _str)\n        private\n        pure\n        returns (string memory, string memory)\n    {\n        uint256 n = bytes(_str).length;\n\n        uint256 limit;\n\n        for (uint256 i = 0; i < n; i++) {\n            if (\n                keccak256(abi.encodePacked(bytes(_str)[i])) ==\n                keccak256(abi.encodePacked(bytes(\".\")))\n            ) {\n                limit = i;\n            }\n        }\n\n        bytes memory wholeNumberPart = new bytes(limit);\n        bytes memory decimalPart = new bytes(n - limit - 1);\n\n        for (uint256 i = 0; i < n; i++) {\n            if (i < limit) {\n                wholeNumberPart[i] = bytes(_str)[i];\n            }\n\n            if (i > limit) {\n                decimalPart[i - limit - 1] = bytes(_str)[i];\n            }\n        }\n\n        return (string(wholeNumberPart), string(decimalPart));\n    }\n\n    //=== extract part of string starting at _startIndex and ending at _endIndex\n    function substring(\n        string memory _str,\n        uint256 _startIndex,\n        uint256 _endIndex\n    ) private pure returns (string memory) {\n        bytes memory result = new bytes(_endIndex - _startIndex);\n\n        for (uint256 i = _startIndex; i < _endIndex; i++) {\n            result[i - _startIndex] = bytes(_str)[i];\n        }\n\n        return string(result);\n    }\n\n    //=== Convert a string to a uint with error handling\n    function strToUint(string memory _str)\n        private\n        pure\n        returns (uint256 res, bool err)\n    {\n        for (uint256 i = 0; i < bytes(_str).length; i++) {\n            if (\n                (uint8(bytes(_str)[i]) - 48) < 0 ||\n                (uint8(bytes(_str)[i]) - 48) > 9\n            ) {\n                return (0, false);\n            }\n            res +=\n                (uint8(bytes(_str)[i]) - 48) *\n                10**(bytes(_str).length - i - 1);\n        }\n\n        return (res, true);\n    }\n\n    function splitDecimalStringToIntegers(string memory _str)\n        private\n        pure\n        returns (uint256 wp, uint256 dp)\n    {\n        bool wpBool;\n        bool dpBool;\n        string memory wholeNumberPart;\n        string memory decimalPart;\n\n        (wholeNumberPart, decimalPart) = splitstring(_str);\n\n        (wp, wpBool) = strToUint(wholeNumberPart);\n        (dp, dpBool) = strToUint(decimalPart);\n\n        return (wp, dp);\n    }\n\n    //=== Separates decimal number (string) to whole number (uint) and decimal (uint) parts\n    function uintToString(uint256 _i) private pure returns (string memory str) {\n        if (_i == 0) return \"0\";\n\n        uint256 j = _i;\n        uint256 length;\n\n        length = lengthOfUint(j);\n\n        bytes memory bstr = new bytes(length);\n        uint256 k = length;\n        j = _i;\n\n        while (j != 0) {\n            bstr[--k] = bytes1(uint8(48 + (j % 10)));\n            j /= 10;\n        }\n\n        str = string(bstr);\n\n        return str;\n    }\n\n    // Add 10 and 30 at the bigining of the decimal parts and add zero at the end to have same number of digits for the two Input\n    function normalizeNumbers(string memory _str1, string memory _str2)\n        public\n        pure\n        returns (string memory, string memory)\n    {\n        string memory wpStr1;\n        string memory dpStr1;\n        string memory wpStr2;\n        string memory dpStr2;\n\n        uint256 num1;\n        uint256 num2;\n        //bool isUint;\n\n        (wpStr1, dpStr1) = splitstring(_str1);\n        (wpStr2, dpStr2) = splitstring(_str2);\n\n        if (lengthOfString(dpStr1) < lengthOfString(dpStr2)) {\n            dpStr1 = paddRight(\n                dpStr1,\n                \"0\",\n                lengthOfString(dpStr2) - lengthOfString(dpStr1)\n            );\n        }\n\n        if (lengthOfString(dpStr2) < lengthOfString(dpStr1)) {\n            dpStr2 = paddRight(\n                dpStr2,\n                \"0\",\n                lengthOfString(dpStr1) - lengthOfString(dpStr2)\n            );\n        }\n\n        (num1, num2) = removeDotAndNormalize(_str1, _str2);\n\n        if (num1 == num2) {\n            dpStr1 = string(abi.encodePacked(\"10\", dpStr1));\n            dpStr2 = string(abi.encodePacked(\"10\", dpStr2));\n        } else if (num1 > num2) {\n            dpStr1 = string(abi.encodePacked(\"30\", dpStr1));\n            dpStr2 = string(abi.encodePacked(\"10\", dpStr2));\n        } else {\n            dpStr1 = string(abi.encodePacked(\"10\", dpStr1));\n            dpStr2 = string(abi.encodePacked(\"30\", dpStr2));\n        }\n\n        return (\n            string(abi.encodePacked(wpStr1, \".\", dpStr1)),\n            string(abi.encodePacked(wpStr2, \".\", dpStr2))\n        );\n    }\n\n    //=== Put numbers to equal number of digits\n    function equalDigitsRight(uint256 _num1, uint256 _num2)\n        private\n        pure\n        returns (uint256 num1, uint256 num2)\n    {\n        if (lengthOfUint(_num1) == lengthOfUint(_num2)) {\n            num1 = _num1;\n            num2 = _num2;\n        } else {\n            if (lengthOfUint(_num1) > lengthOfUint(_num2)) {\n                string memory str2 = uintToString(_num2);\n                bool isUint;\n\n                str2 = paddRight(\n                    str2,\n                    \"0\",\n                    lengthOfUint(_num1) - lengthOfUint(_num2)\n                );\n\n                num1 = _num1;\n                (num2, isUint) = strToUint(str2);\n            } else {\n                string memory str1 = uintToString(_num1);\n                bool isUint;\n\n                str1 = paddRight(\n                    str1,\n                    \"0\",\n                    lengthOfUint(_num2) - lengthOfUint(_num1)\n                );\n\n                (num1, isUint) = strToUint(str1);\n                num2 = _num2;\n            }\n        }\n    }\n\n    //=== Put numbers to equal number of digits\n    function equalDigitsLeft(uint256 _num1, uint256 _num2)\n        private\n        pure\n        returns (uint256 num1, uint256 num2)\n    {\n        if (lengthOfUint(_num1) == lengthOfUint(_num2)) {\n            num1 = _num1;\n            num2 = _num2;\n        } else {\n            if (lengthOfUint(_num1) > lengthOfUint(_num2)) {\n                string memory str2 = uintToString(_num2);\n                bool isUint;\n\n                str2 = paddLeft(\n                    str2,\n                    \"0\",\n                    lengthOfUint(_num1) - lengthOfUint(_num2)\n                );\n\n                num1 = _num1;\n                (num2, isUint) = strToUint(str2);\n            } else {\n                string memory str1 = uintToString(_num1);\n                bool isUint;\n\n                str1 = paddLeft(\n                    str1,\n                    \"0\",\n                    lengthOfUint(_num2) - lengthOfUint(_num1)\n                );\n\n                (num1, isUint) = strToUint(str1);\n                num2 = _num2;\n            }\n        }\n    }\n\n    //=== Removing the dot \".\" of a floating point number. Ex: \"12.45 => 1245\"\n    function removeDot(string memory _str) public pure returns (uint256, bool) {\n        string memory wp;\n        string memory dp;\n\n        (wp, dp) = splitstring(_str);\n\n        return strToUint(string(abi.encodePacked(wp, dp)));\n    }\n\n    //=== Removing the dot \".\" of two floating point numbers and normalizing. Ex: \"(3.14, 14.3) => (314, 1430)\"\n    function removeDotAndNormalize(string memory _str1, string memory _str2)\n        public\n        pure\n        returns (uint256, uint256)\n    {\n        string memory wp1;\n        string memory dp1;\n        string memory wp2;\n        string memory dp2;\n        bool isUint;\n        uint256 num1;\n        uint256 num2;\n\n        (wp1, dp1) = splitstring(_str1);\n        (wp2, dp2) = splitstring(_str2);\n\n        if (lengthOfString(dp1) < lengthOfString(dp2)) {\n            dp1 = paddRight(\n                dp1,\n                \"0\",\n                lengthOfString(dp2) - lengthOfString(dp1)\n            );\n        }\n\n        if (lengthOfString(dp2) < lengthOfString(dp1)) {\n            dp2 = paddRight(\n                dp2,\n                \"0\",\n                lengthOfString(dp1) - lengthOfString(dp2)\n            );\n        }\n\n        (num1, isUint) = strToUint(string(abi.encodePacked(wp1, dp1)));\n        (num2, isUint) = strToUint(string(abi.encodePacked(wp2, dp2)));\n\n        return (num1, num2);\n    }\n\n    //=== Padding Right\n    function paddRight(\n        string memory _str,\n        string memory _padStr,\n        uint256 _padSize\n    ) private pure returns (string memory str) {\n        for (uint256 i = 0; i < _padSize; i++) {\n            str = string(abi.encodePacked(str, _padStr));\n        }\n\n        return string(abi.encodePacked(_str, str));\n    }\n\n    //=== Padding Left\n    function paddLeft(\n        string memory _str,\n        string memory _padStr,\n        uint256 _padSize\n    ) private pure returns (string memory str) {\n        for (uint256 i = 0; i < _padSize; i++) {\n            str = string(abi.encodePacked(str, _padStr));\n        }\n\n        return string(abi.encodePacked(str, _str));\n    }\n}\n",
  "sourcePath": "/Users/samuel/Documents/Projet/Pojet_Dev/Solity_Math/contracts/MathLibrary.sol",
  "compiler": {
    "name": "solc",
    "version": "0.8.9+commit.e5eed63a.Emscripten.clang"
  },
  "schemaVersion": "3.3.4",
  "updatedAt": "2021-10-15T01:30:00.617Z",
  "networkType": "ethereum",
  "devdoc": {
    "kind": "dev",
    "methods": {},
    "version": 1
  },
  "userdoc": {
    "kind": "user",
    "methods": {},
    "version": 1
  }
}